{
  "_format": "hh-sol-artifact-1",
  "contractName": "MyNFT",
  "sourceName": "contracts/MyNFT.sol",
  "abi": [
    {
      "inputs": [
        {
          "internalType": "string",
          "name": "_name",
          "type": "string"
        },
        {
          "internalType": "string",
          "name": "_symbol",
          "type": "string"
        },
        {
          "internalType": "address",
          "name": "_paymentToken",
          "type": "address"
        },
        {
          "internalType": "uint256",
          "name": "_mintPrice",
          "type": "uint256"
        },
        {
          "internalType": "uint256",
          "name": "_maxSupply",
          "type": "uint256"
        }
      ],
      "stateMutability": "nonpayable",
      "type": "constructor"
    },
    {
      "inputs": [
        {
          "internalType": "address",
          "name": "sender",
          "type": "address"
        },
        {
          "internalType": "uint256",
          "name": "tokenId",
          "type": "uint256"
        },
        {
          "internalType": "address",
          "name": "owner",
          "type": "address"
        }
      ],
      "name": "ERC721IncorrectOwner",
      "type": "error"
    },
    {
      "inputs": [
        {
          "internalType": "address",
          "name": "operator",
          "type": "address"
        },
        {
          "internalType": "uint256",
          "name": "tokenId",
          "type": "uint256"
        }
      ],
      "name": "ERC721InsufficientApproval",
      "type": "error"
    },
    {
      "inputs": [
        {
          "internalType": "address",
          "name": "approver",
          "type": "address"
        }
      ],
      "name": "ERC721InvalidApprover",
      "type": "error"
    },
    {
      "inputs": [
        {
          "internalType": "address",
          "name": "operator",
          "type": "address"
        }
      ],
      "name": "ERC721InvalidOperator",
      "type": "error"
    },
    {
      "inputs": [
        {
          "internalType": "address",
          "name": "owner",
          "type": "address"
        }
      ],
      "name": "ERC721InvalidOwner",
      "type": "error"
    },
    {
      "inputs": [
        {
          "internalType": "address",
          "name": "receiver",
          "type": "address"
        }
      ],
      "name": "ERC721InvalidReceiver",
      "type": "error"
    },
    {
      "inputs": [
        {
          "internalType": "address",
          "name": "sender",
          "type": "address"
        }
      ],
      "name": "ERC721InvalidSender",
      "type": "error"
    },
    {
      "inputs": [
        {
          "internalType": "uint256",
          "name": "tokenId",
          "type": "uint256"
        }
      ],
      "name": "ERC721NonexistentToken",
      "type": "error"
    },
    {
      "inputs": [
        {
          "internalType": "address",
          "name": "owner",
          "type": "address"
        }
      ],
      "name": "OwnableInvalidOwner",
      "type": "error"
    },
    {
      "inputs": [
        {
          "internalType": "address",
          "name": "account",
          "type": "address"
        }
      ],
      "name": "OwnableUnauthorizedAccount",
      "type": "error"
    },
    {
      "anonymous": false,
      "inputs": [
        {
          "indexed": true,
          "internalType": "address",
          "name": "owner",
          "type": "address"
        },
        {
          "indexed": true,
          "internalType": "address",
          "name": "approved",
          "type": "address"
        },
        {
          "indexed": true,
          "internalType": "uint256",
          "name": "tokenId",
          "type": "uint256"
        }
      ],
      "name": "Approval",
      "type": "event"
    },
    {
      "anonymous": false,
      "inputs": [
        {
          "indexed": true,
          "internalType": "address",
          "name": "owner",
          "type": "address"
        },
        {
          "indexed": true,
          "internalType": "address",
          "name": "operator",
          "type": "address"
        },
        {
          "indexed": false,
          "internalType": "bool",
          "name": "approved",
          "type": "bool"
        }
      ],
      "name": "ApprovalForAll",
      "type": "event"
    },
    {
      "anonymous": false,
      "inputs": [
        {
          "indexed": true,
          "internalType": "address",
          "name": "previousOwner",
          "type": "address"
        },
        {
          "indexed": true,
          "internalType": "address",
          "name": "newOwner",
          "type": "address"
        }
      ],
      "name": "OwnershipTransferred",
      "type": "event"
    },
    {
      "anonymous": false,
      "inputs": [
        {
          "indexed": true,
          "internalType": "address",
          "name": "from",
          "type": "address"
        },
        {
          "indexed": true,
          "internalType": "address",
          "name": "to",
          "type": "address"
        },
        {
          "indexed": true,
          "internalType": "uint256",
          "name": "tokenId",
          "type": "uint256"
        }
      ],
      "name": "Transfer",
      "type": "event"
    },
    {
      "inputs": [
        {
          "internalType": "address",
          "name": "to",
          "type": "address"
        },
        {
          "internalType": "uint256",
          "name": "tokenId",
          "type": "uint256"
        }
      ],
      "name": "approve",
      "outputs": [],
      "stateMutability": "nonpayable",
      "type": "function"
    },
    {
      "inputs": [
        {
          "internalType": "address",
          "name": "owner",
          "type": "address"
        }
      ],
      "name": "balanceOf",
      "outputs": [
        {
          "internalType": "uint256",
          "name": "",
          "type": "uint256"
        }
      ],
      "stateMutability": "view",
      "type": "function"
    },
    {
      "inputs": [
        {
          "internalType": "uint256",
          "name": "tokenId",
          "type": "uint256"
        }
      ],
      "name": "getApproved",
      "outputs": [
        {
          "internalType": "address",
          "name": "",
          "type": "address"
        }
      ],
      "stateMutability": "view",
      "type": "function"
    },
    {
      "inputs": [
        {
          "internalType": "address",
          "name": "owner",
          "type": "address"
        },
        {
          "internalType": "address",
          "name": "operator",
          "type": "address"
        }
      ],
      "name": "isApprovedForAll",
      "outputs": [
        {
          "internalType": "bool",
          "name": "",
          "type": "bool"
        }
      ],
      "stateMutability": "view",
      "type": "function"
    },
    {
      "inputs": [],
      "name": "maxSupply",
      "outputs": [
        {
          "internalType": "uint256",
          "name": "",
          "type": "uint256"
        }
      ],
      "stateMutability": "view",
      "type": "function"
    },
    {
      "inputs": [],
      "name": "mint",
      "outputs": [],
      "stateMutability": "nonpayable",
      "type": "function"
    },
    {
      "inputs": [],
      "name": "mintPrice",
      "outputs": [
        {
          "internalType": "uint256",
          "name": "",
          "type": "uint256"
        }
      ],
      "stateMutability": "view",
      "type": "function"
    },
    {
      "inputs": [],
      "name": "name",
      "outputs": [
        {
          "internalType": "string",
          "name": "",
          "type": "string"
        }
      ],
      "stateMutability": "view",
      "type": "function"
    },
    {
      "inputs": [],
      "name": "owner",
      "outputs": [
        {
          "internalType": "address",
          "name": "",
          "type": "address"
        }
      ],
      "stateMutability": "view",
      "type": "function"
    },
    {
      "inputs": [
        {
          "internalType": "uint256",
          "name": "tokenId",
          "type": "uint256"
        }
      ],
      "name": "ownerOf",
      "outputs": [
        {
          "internalType": "address",
          "name": "",
          "type": "address"
        }
      ],
      "stateMutability": "view",
      "type": "function"
    },
    {
      "inputs": [],
      "name": "paymentToken",
      "outputs": [
        {
          "internalType": "contract IERC20",
          "name": "",
          "type": "address"
        }
      ],
      "stateMutability": "view",
      "type": "function"
    },
    {
      "inputs": [],
      "name": "renounceOwnership",
      "outputs": [],
      "stateMutability": "nonpayable",
      "type": "function"
    },
    {
      "inputs": [
        {
          "internalType": "address",
          "name": "from",
          "type": "address"
        },
        {
          "internalType": "address",
          "name": "to",
          "type": "address"
        },
        {
          "internalType": "uint256",
          "name": "tokenId",
          "type": "uint256"
        }
      ],
      "name": "safeTransferFrom",
      "outputs": [],
      "stateMutability": "nonpayable",
      "type": "function"
    },
    {
      "inputs": [
        {
          "internalType": "address",
          "name": "from",
          "type": "address"
        },
        {
          "internalType": "address",
          "name": "to",
          "type": "address"
        },
        {
          "internalType": "uint256",
          "name": "tokenId",
          "type": "uint256"
        },
        {
          "internalType": "bytes",
          "name": "data",
          "type": "bytes"
        }
      ],
      "name": "safeTransferFrom",
      "outputs": [],
      "stateMutability": "nonpayable",
      "type": "function"
    },
    {
      "inputs": [
        {
          "internalType": "address",
          "name": "operator",
          "type": "address"
        },
        {
          "internalType": "bool",
          "name": "approved",
          "type": "bool"
        }
      ],
      "name": "setApprovalForAll",
      "outputs": [],
      "stateMutability": "nonpayable",
      "type": "function"
    },
    {
      "inputs": [
        {
          "internalType": "bytes4",
          "name": "interfaceId",
          "type": "bytes4"
        }
      ],
      "name": "supportsInterface",
      "outputs": [
        {
          "internalType": "bool",
          "name": "",
          "type": "bool"
        }
      ],
      "stateMutability": "view",
      "type": "function"
    },
    {
      "inputs": [],
      "name": "symbol",
      "outputs": [
        {
          "internalType": "string",
          "name": "",
          "type": "string"
        }
      ],
      "stateMutability": "view",
      "type": "function"
    },
    {
      "inputs": [
        {
          "internalType": "uint256",
          "name": "tokenId",
          "type": "uint256"
        }
      ],
      "name": "tokenURI",
      "outputs": [
        {
          "internalType": "string",
          "name": "",
          "type": "string"
        }
      ],
      "stateMutability": "view",
      "type": "function"
    },
    {
      "inputs": [
        {
          "internalType": "address",
          "name": "from",
          "type": "address"
        },
        {
          "internalType": "address",
          "name": "to",
          "type": "address"
        },
        {
          "internalType": "uint256",
          "name": "tokenId",
          "type": "uint256"
        }
      ],
      "name": "transferFrom",
      "outputs": [],
      "stateMutability": "nonpayable",
      "type": "function"
    },
    {
      "inputs": [
        {
          "internalType": "address",
          "name": "newOwner",
          "type": "address"
        }
      ],
      "name": "transferOwnership",
      "outputs": [],
      "stateMutability": "nonpayable",
      "type": "function"
    },
    {
      "inputs": [],
      "name": "withdraw",
      "outputs": [],
      "stateMutability": "nonpayable",
      "type": "function"
    }
  ],
  "bytecode": "0x608060405234801561001057600080fd5b5060405161310738038061310783398181016040528101906100329190610401565b338585816000908161004491906106cb565b50806001908161005491906106cb565b505050600073ffffffffffffffffffffffffffffffffffffffff168173ffffffffffffffffffffffffffffffffffffffff16036100c95760006040517f1e4fbdf70000000000000000000000000000000000000000000000000000000081526004016100c091906107ac565b60405180910390fd5b6100d88161013260201b60201c565b5082600860006101000a81548173ffffffffffffffffffffffffffffffffffffffff021916908373ffffffffffffffffffffffffffffffffffffffff1602179055508160098190555080600a8190555050505050506107c7565b6000600660009054906101000a900473ffffffffffffffffffffffffffffffffffffffff16905081600660006101000a81548173ffffffffffffffffffffffffffffffffffffffff021916908373ffffffffffffffffffffffffffffffffffffffff1602179055508173ffffffffffffffffffffffffffffffffffffffff168173ffffffffffffffffffffffffffffffffffffffff167f8be0079c531659141344cd1fd0a4f28419497f9722a3daafe3b4186f6b6457e060405160405180910390a35050565b6000604051905090565b600080fd5b600080fd5b600080fd5b600080fd5b6000601f19601f8301169050919050565b7f4e487b7100000000000000000000000000000000000000000000000000000000600052604160045260246000fd5b61025f82610216565b810181811067ffffffffffffffff8211171561027e5761027d610227565b5b80604052505050565b60006102916101f8565b905061029d8282610256565b919050565b600067ffffffffffffffff8211156102bd576102bc610227565b5b6102c682610216565b9050602081019050919050565b60005b838110156102f15780820151818401526020810190506102d6565b60008484015250505050565b600061031061030b846102a2565b610287565b90508281526020810184848401111561032c5761032b610211565b5b6103378482856102d3565b509392505050565b600082601f8301126103545761035361020c565b5b81516103648482602086016102fd565b91505092915050565b600073ffffffffffffffffffffffffffffffffffffffff82169050919050565b60006103988261036d565b9050919050565b6103a88161038d565b81146103b357600080fd5b50565b6000815190506103c58161039f565b92915050565b6000819050919050565b6103de816103cb565b81146103e957600080fd5b50565b6000815190506103fb816103d5565b92915050565b600080600080600060a0868803121561041d5761041c610202565b5b600086015167ffffffffffffffff81111561043b5761043a610207565b5b6104478882890161033f565b955050602086015167ffffffffffffffff81111561046857610467610207565b5b6104748882890161033f565b9450506040610485888289016103b6565b9350506060610496888289016103ec565b92505060806104a7888289016103ec565b9150509295509295909350565b600081519050919050565b7f4e487b7100000000000000000000000000000000000000000000000000000000600052602260045260246000fd5b6000600282049050600182168061050657607f821691505b602082108103610519576105186104bf565b5b50919050565b60008190508160005260206000209050919050565b60006020601f8301049050919050565b600082821b905092915050565b6000600883026105817fffffffffffffffffffffffffffffffffffffffffffffffffffffffffffffffff82610544565b61058b8683610544565b95508019841693508086168417925050509392505050565b6000819050919050565b60006105c86105c36105be846103cb565b6105a3565b6103cb565b9050919050565b6000819050919050565b6105e2836105ad565b6105f66105ee826105cf565b848454610551565b825550505050565b600090565b61060b6105fe565b6106168184846105d9565b505050565b5b8181101561063a5761062f600082610603565b60018101905061061c565b5050565b601f82111561067f576106508161051f565b61065984610534565b81016020851015610668578190505b61067c61067485610534565b83018261061b565b50505b505050565b600082821c905092915050565b60006106a260001984600802610684565b1980831691505092915050565b60006106bb8383610691565b9150826002028217905092915050565b6106d4826104b4565b67ffffffffffffffff8111156106ed576106ec610227565b5b6106f782546104ee565b61070282828561063e565b600060209050601f8311600181146107355760008415610723578287015190505b61072d85826106af565b865550610795565b601f1984166107438661051f565b60005b8281101561076b57848901518255600182019150602085019450602081019050610746565b868310156107885784890151610784601f891682610691565b8355505b6001600288020188555050505b505050505050565b6107a68161038d565b82525050565b60006020820190506107c1600083018461079d565b92915050565b612931806107d66000396000f3fe608060405234801561001057600080fd5b50600436106101375760003560e01c80636817c76c116100b8578063a22cb4651161007c578063a22cb46514610304578063b88d4fde14610320578063c87b56dd1461033c578063d5abeb011461036c578063e985e9c51461038a578063f2fde38b146103ba57610137565b80636817c76c1461027057806370a082311461028e578063715018a6146102be5780638da5cb5b146102c857806395d89b41146102e657610137565b806323b872dd116100ff57806323b872dd146101e05780633013ce29146101fc5780633ccfd60b1461021a57806342842e0e146102245780636352211e1461024057610137565b806301ffc9a71461013c57806306fdde031461016c578063081812fc1461018a578063095ea7b3146101ba5780631249c58b146101d6575b600080fd5b61015660048036038101906101519190611dd0565b6103d6565b6040516101639190611e18565b60405180910390f35b6101746104b8565b6040516101819190611ec3565b60405180910390f35b6101a4600480360381019061019f9190611f1b565b61054a565b6040516101b19190611f89565b60405180910390f35b6101d460048036038101906101cf9190611fd0565b610566565b005b6101de61057c565b005b6101fa60048036038101906101f59190612010565b610899565b005b61020461099b565b60405161021191906120c2565b60405180910390f35b6102226109c1565b005b61023e60048036038101906102399190612010565b610b14565b005b61025a60048036038101906102559190611f1b565b610b34565b6040516102679190611f89565b60405180910390f35b610278610b46565b60405161028591906120ec565b60405180910390f35b6102a860048036038101906102a39190612107565b610b4c565b6040516102b591906120ec565b60405180910390f35b6102c6610c06565b005b6102d0610c1a565b6040516102dd9190611f89565b60405180910390f35b6102ee610c44565b6040516102fb9190611ec3565b60405180910390f35b61031e60048036038101906103199190612160565b610cd6565b005b61033a600480360381019061033591906122d5565b610cec565b005b61035660048036038101906103519190611f1b565b610d11565b6040516103639190611ec3565b60405180910390f35b610374610d7a565b60405161038191906120ec565b60405180910390f35b6103a4600480360381019061039f9190612358565b610d80565b6040516103b19190611e18565b60405180910390f35b6103d460048036038101906103cf9190612107565b610e14565b005b60007f80ac58cd000000000000000000000000000000000000000000000000000000007bffffffffffffffffffffffffffffffffffffffffffffffffffffffff1916827bffffffffffffffffffffffffffffffffffffffffffffffffffffffff191614806104a157507f5b5e139f000000000000000000000000000000000000000000000000000000007bffffffffffffffffffffffffffffffffffffffffffffffffffffffff1916827bffffffffffffffffffffffffffffffffffffffffffffffffffffffff1916145b806104b157506104b082610e9a565b5b9050919050565b6060600080546104c7906123c7565b80601f01602080910402602001604051908101604052809291908181526020018280546104f3906123c7565b80156105405780601f1061051557610100808354040283529160200191610540565b820191906000526020600020905b81548152906001019060200180831161052357829003601f168201915b5050505050905090565b600061055582610f04565b5061055f82610f8c565b9050919050565b6105788282610573610fc9565b610fd1565b5050565b600a54600754106105c2576040517f08c379a00000000000000000000000000000000000000000000000000000000081526004016105b990612444565b60405180910390fd5b600954600860009054906101000a900473ffffffffffffffffffffffffffffffffffffffff1673ffffffffffffffffffffffffffffffffffffffff166370a08231336040518263ffffffff1660e01b81526004016106209190611f89565b602060405180830381865afa15801561063d573d6000803e3d6000fd5b505050506040513d601f19601f820116820180604052508101906106619190612479565b10156106a2576040517f08c379a0000000000000000000000000000000000000000000000000000000008152600401610699906124f2565b60405180910390fd5b600954600860009054906101000a900473ffffffffffffffffffffffffffffffffffffffff1673ffffffffffffffffffffffffffffffffffffffff1663dd62ed3e33306040518363ffffffff1660e01b8152600401610702929190612512565b602060405180830381865afa15801561071f573d6000803e3d6000fd5b505050506040513d601f19601f820116820180604052508101906107439190612479565b1015610784576040517f08c379a000000000000000000000000000000000000000000000000000000000815260040161077b906125ad565b60405180910390fd5b6000600860009054906101000a900473ffffffffffffffffffffffffffffffffffffffff1673ffffffffffffffffffffffffffffffffffffffff166323b872dd33306009546040518463ffffffff1660e01b81526004016107e7939291906125cd565b6020604051808303816000875af1158015610806573d6000803e3d6000fd5b505050506040513d601f19601f8201168201806040525081019061082a9190612619565b90508061086c576040517f08c379a000000000000000000000000000000000000000000000000000000000815260040161086390612692565b60405180910390fd5b6007600081548092919061087f906126e1565b9190505550600060075490506108953382610fe3565b5050565b600073ffffffffffffffffffffffffffffffffffffffff168273ffffffffffffffffffffffffffffffffffffffff160361090b5760006040517f64a0ae920000000000000000000000000000000000000000000000000000000081526004016109029190611f89565b60405180910390fd5b600061091f838361091a610fc9565b611001565b90508373ffffffffffffffffffffffffffffffffffffffff168173ffffffffffffffffffffffffffffffffffffffff1614610995578382826040517f64283d7b00000000000000000000000000000000000000000000000000000000815260040161098c93929190612729565b60405180910390fd5b50505050565b600860009054906101000a900473ffffffffffffffffffffffffffffffffffffffff1681565b6109c961121b565b6000600860009054906101000a900473ffffffffffffffffffffffffffffffffffffffff1673ffffffffffffffffffffffffffffffffffffffff166370a08231306040518263ffffffff1660e01b8152600401610a269190611f89565b602060405180830381865afa158015610a43573d6000803e3d6000fd5b505050506040513d601f19601f82011682018060405250810190610a679190612479565b9050600860009054906101000a900473ffffffffffffffffffffffffffffffffffffffff1673ffffffffffffffffffffffffffffffffffffffff1663a9059cbb610aaf610c1a565b836040518363ffffffff1660e01b8152600401610acd929190612760565b6020604051808303816000875af1158015610aec573d6000803e3d6000fd5b505050506040513d601f19601f82011682018060405250810190610b109190612619565b5050565b610b2f83838360405180602001604052806000815250610cec565b505050565b6000610b3f82610f04565b9050919050565b60095481565b60008073ffffffffffffffffffffffffffffffffffffffff168273ffffffffffffffffffffffffffffffffffffffff1603610bbf5760006040517f89c62b64000000000000000000000000000000000000000000000000000000008152600401610bb69190611f89565b60405180910390fd5b600360008373ffffffffffffffffffffffffffffffffffffffff1673ffffffffffffffffffffffffffffffffffffffff168152602001908152602001600020549050919050565b610c0e61121b565b610c1860006112a2565b565b6000600660009054906101000a900473ffffffffffffffffffffffffffffffffffffffff16905090565b606060018054610c53906123c7565b80601f0160208091040260200160405190810160405280929190818152602001828054610c7f906123c7565b8015610ccc5780601f10610ca157610100808354040283529160200191610ccc565b820191906000526020600020905b815481529060010190602001808311610caf57829003601f168201915b5050505050905090565b610ce8610ce1610fc9565b8383611368565b5050565b610cf7848484610899565b610d0b610d02610fc9565b858585856114d7565b50505050565b6060610d1c82610f04565b506000610d27611688565b90506000815111610d475760405180602001604052806000815250610d72565b80610d518461169f565b604051602001610d629291906127c5565b6040516020818303038152906040525b915050919050565b600a5481565b6000600560008473ffffffffffffffffffffffffffffffffffffffff1673ffffffffffffffffffffffffffffffffffffffff16815260200190815260200160002060008373ffffffffffffffffffffffffffffffffffffffff1673ffffffffffffffffffffffffffffffffffffffff16815260200190815260200160002060009054906101000a900460ff16905092915050565b610e1c61121b565b600073ffffffffffffffffffffffffffffffffffffffff168173ffffffffffffffffffffffffffffffffffffffff1603610e8e5760006040517f1e4fbdf7000000000000000000000000000000000000000000000000000000008152600401610e859190611f89565b60405180910390fd5b610e97816112a2565b50565b60007f01ffc9a7000000000000000000000000000000000000000000000000000000007bffffffffffffffffffffffffffffffffffffffffffffffffffffffff1916827bffffffffffffffffffffffffffffffffffffffffffffffffffffffff1916149050919050565b600080610f108361176d565b9050600073ffffffffffffffffffffffffffffffffffffffff168173ffffffffffffffffffffffffffffffffffffffff1603610f8357826040517f7e273289000000000000000000000000000000000000000000000000000000008152600401610f7a91906120ec565b60405180910390fd5b80915050919050565b60006004600083815260200190815260200160002060009054906101000a900473ffffffffffffffffffffffffffffffffffffffff169050919050565b600033905090565b610fde83838360016117aa565b505050565b610ffd82826040518060200160405280600081525061196f565b5050565b60008061100d8461176d565b9050600073ffffffffffffffffffffffffffffffffffffffff168373ffffffffffffffffffffffffffffffffffffffff161461104f5761104e818486611993565b5b600073ffffffffffffffffffffffffffffffffffffffff168173ffffffffffffffffffffffffffffffffffffffff16146110e0576110916000856000806117aa565b6001600360008373ffffffffffffffffffffffffffffffffffffffff1673ffffffffffffffffffffffffffffffffffffffff168152602001908152602001600020600082825403925050819055505b600073ffffffffffffffffffffffffffffffffffffffff168573ffffffffffffffffffffffffffffffffffffffff1614611163576001600360008773ffffffffffffffffffffffffffffffffffffffff1673ffffffffffffffffffffffffffffffffffffffff168152602001908152602001600020600082825401925050819055505b846002600086815260200190815260200160002060006101000a81548173ffffffffffffffffffffffffffffffffffffffff021916908373ffffffffffffffffffffffffffffffffffffffff160217905550838573ffffffffffffffffffffffffffffffffffffffff168273ffffffffffffffffffffffffffffffffffffffff167fddf252ad1be2c89b69c2b068fc378daa952ba7f163c4a11628f55a4df523b3ef60405160405180910390a4809150509392505050565b611223610fc9565b73ffffffffffffffffffffffffffffffffffffffff16611241610c1a565b73ffffffffffffffffffffffffffffffffffffffff16146112a057611264610fc9565b6040517f118cdaa70000000000000000000000000000000000000000000000000000000081526004016112979190611f89565b60405180910390fd5b565b6000600660009054906101000a900473ffffffffffffffffffffffffffffffffffffffff16905081600660006101000a81548173ffffffffffffffffffffffffffffffffffffffff021916908373ffffffffffffffffffffffffffffffffffffffff1602179055508173ffffffffffffffffffffffffffffffffffffffff168173ffffffffffffffffffffffffffffffffffffffff167f8be0079c531659141344cd1fd0a4f28419497f9722a3daafe3b4186f6b6457e060405160405180910390a35050565b600073ffffffffffffffffffffffffffffffffffffffff168273ffffffffffffffffffffffffffffffffffffffff16036113d957816040517f5b08ba180000000000000000000000000000000000000000000000000000000081526004016113d09190611f89565b60405180910390fd5b80600560008573ffffffffffffffffffffffffffffffffffffffff1673ffffffffffffffffffffffffffffffffffffffff16815260200190815260200160002060008473ffffffffffffffffffffffffffffffffffffffff1673ffffffffffffffffffffffffffffffffffffffff16815260200190815260200160002060006101000a81548160ff0219169083151502179055508173ffffffffffffffffffffffffffffffffffffffff168373ffffffffffffffffffffffffffffffffffffffff167f17307eab39ab6107e8899845ad3d59bd9653f200f220920489ca2b5937696c31836040516114ca9190611e18565b60405180910390a3505050565b60008373ffffffffffffffffffffffffffffffffffffffff163b1115611681578273ffffffffffffffffffffffffffffffffffffffff1663150b7a02868685856040518563ffffffff1660e01b8152600401611536949392919061283e565b6020604051808303816000875af192505050801561157257506040513d601f19601f8201168201806040525081019061156f919061289f565b60015b6115f6573d80600081146115a2576040519150601f19603f3d011682016040523d82523d6000602084013e6115a7565b606091505b5060008151036115ee57836040517f64a0ae920000000000000000000000000000000000000000000000000000000081526004016115e59190611f89565b60405180910390fd5b805181602001fd5b63150b7a0260e01b7bffffffffffffffffffffffffffffffffffffffffffffffffffffffff1916817bffffffffffffffffffffffffffffffffffffffffffffffffffffffff19161461167f57836040517f64a0ae920000000000000000000000000000000000000000000000000000000081526004016116769190611f89565b60405180910390fd5b505b5050505050565b606060405180602001604052806000815250905090565b6060600060016116ae84611a57565b01905060008167ffffffffffffffff8111156116cd576116cc6121aa565b5b6040519080825280601f01601f1916602001820160405280156116ff5781602001600182028036833780820191505090505b509050600082602001820190505b600115611762578080600190039150507f3031323334353637383961626364656600000000000000000000000000000000600a86061a8153600a8581611756576117556128cc565b5b0494506000850361170d575b819350505050919050565b60006002600083815260200190815260200160002060009054906101000a900473ffffffffffffffffffffffffffffffffffffffff169050919050565b80806117e35750600073ffffffffffffffffffffffffffffffffffffffff168273ffffffffffffffffffffffffffffffffffffffff1614155b156119175760006117f384610f04565b9050600073ffffffffffffffffffffffffffffffffffffffff168373ffffffffffffffffffffffffffffffffffffffff161415801561185e57508273ffffffffffffffffffffffffffffffffffffffff168173ffffffffffffffffffffffffffffffffffffffff1614155b8015611871575061186f8184610d80565b155b156118b357826040517fa9fbf51f0000000000000000000000000000000000000000000000000000000081526004016118aa9190611f89565b60405180910390fd5b811561191557838573ffffffffffffffffffffffffffffffffffffffff168273ffffffffffffffffffffffffffffffffffffffff167f8c5be1e5ebec7d5bd14f71427d1e84f3dd0314c0f7b2291e5b200ac8c7c3b92560405160405180910390a45b505b836004600085815260200190815260200160002060006101000a81548173ffffffffffffffffffffffffffffffffffffffff021916908373ffffffffffffffffffffffffffffffffffffffff16021790555050505050565b6119798383611baa565b61198e611984610fc9565b60008585856114d7565b505050565b61199e838383611ca3565b611a5257600073ffffffffffffffffffffffffffffffffffffffff168373ffffffffffffffffffffffffffffffffffffffff1603611a1357806040517f7e273289000000000000000000000000000000000000000000000000000000008152600401611a0a91906120ec565b60405180910390fd5b81816040517f177e802f000000000000000000000000000000000000000000000000000000008152600401611a49929190612760565b60405180910390fd5b505050565b600080600090507a184f03e93ff9f4daa797ed6e38ed64bf6a1f0100000000000000008310611ab5577a184f03e93ff9f4daa797ed6e38ed64bf6a1f0100000000000000008381611aab57611aaa6128cc565b5b0492506040810190505b6d04ee2d6d415b85acef81000000008310611af2576d04ee2d6d415b85acef81000000008381611ae857611ae76128cc565b5b0492506020810190505b662386f26fc100008310611b2157662386f26fc100008381611b1757611b166128cc565b5b0492506010810190505b6305f5e1008310611b4a576305f5e1008381611b4057611b3f6128cc565b5b0492506008810190505b6127108310611b6f576127108381611b6557611b646128cc565b5b0492506004810190505b60648310611b925760648381611b8857611b876128cc565b5b0492506002810190505b600a8310611ba1576001810190505b80915050919050565b600073ffffffffffffffffffffffffffffffffffffffff168273ffffffffffffffffffffffffffffffffffffffff1603611c1c5760006040517f64a0ae92000000000000000000000000000000000000000000000000000000008152600401611c139190611f89565b60405180910390fd5b6000611c2a83836000611001565b9050600073ffffffffffffffffffffffffffffffffffffffff168173ffffffffffffffffffffffffffffffffffffffff1614611c9e5760006040517f73c6ac6e000000000000000000000000000000000000000000000000000000008152600401611c959190611f89565b60405180910390fd5b505050565b60008073ffffffffffffffffffffffffffffffffffffffff168373ffffffffffffffffffffffffffffffffffffffff1614158015611d5b57508273ffffffffffffffffffffffffffffffffffffffff168473ffffffffffffffffffffffffffffffffffffffff161480611d1c5750611d1b8484610d80565b5b80611d5a57508273ffffffffffffffffffffffffffffffffffffffff16611d4283610f8c565b73ffffffffffffffffffffffffffffffffffffffff16145b5b90509392505050565b6000604051905090565b600080fd5b600080fd5b60007fffffffff0000000000000000000000000000000000000000000000000000000082169050919050565b611dad81611d78565b8114611db857600080fd5b50565b600081359050611dca81611da4565b92915050565b600060208284031215611de657611de5611d6e565b5b6000611df484828501611dbb565b91505092915050565b60008115159050919050565b611e1281611dfd565b82525050565b6000602082019050611e2d6000830184611e09565b92915050565b600081519050919050565b600082825260208201905092915050565b60005b83811015611e6d578082015181840152602081019050611e52565b60008484015250505050565b6000601f19601f8301169050919050565b6000611e9582611e33565b611e9f8185611e3e565b9350611eaf818560208601611e4f565b611eb881611e79565b840191505092915050565b60006020820190508181036000830152611edd8184611e8a565b905092915050565b6000819050919050565b611ef881611ee5565b8114611f0357600080fd5b50565b600081359050611f1581611eef565b92915050565b600060208284031215611f3157611f30611d6e565b5b6000611f3f84828501611f06565b91505092915050565b600073ffffffffffffffffffffffffffffffffffffffff82169050919050565b6000611f7382611f48565b9050919050565b611f8381611f68565b82525050565b6000602082019050611f9e6000830184611f7a565b92915050565b611fad81611f68565b8114611fb857600080fd5b50565b600081359050611fca81611fa4565b92915050565b60008060408385031215611fe757611fe6611d6e565b5b6000611ff585828601611fbb565b925050602061200685828601611f06565b9150509250929050565b60008060006060848603121561202957612028611d6e565b5b600061203786828701611fbb565b935050602061204886828701611fbb565b925050604061205986828701611f06565b9150509250925092565b6000819050919050565b600061208861208361207e84611f48565b612063565b611f48565b9050919050565b600061209a8261206d565b9050919050565b60006120ac8261208f565b9050919050565b6120bc816120a1565b82525050565b60006020820190506120d760008301846120b3565b92915050565b6120e681611ee5565b82525050565b600060208201905061210160008301846120dd565b92915050565b60006020828403121561211d5761211c611d6e565b5b600061212b84828501611fbb565b91505092915050565b61213d81611dfd565b811461214857600080fd5b50565b60008135905061215a81612134565b92915050565b6000806040838503121561217757612176611d6e565b5b600061218585828601611fbb565b92505060206121968582860161214b565b9150509250929050565b600080fd5b600080fd5b7f4e487b7100000000000000000000000000000000000000000000000000000000600052604160045260246000fd5b6121e282611e79565b810181811067ffffffffffffffff82111715612201576122006121aa565b5b80604052505050565b6000612214611d64565b905061222082826121d9565b919050565b600067ffffffffffffffff8211156122405761223f6121aa565b5b61224982611e79565b9050602081019050919050565b82818337600083830152505050565b600061227861227384612225565b61220a565b905082815260208101848484011115612294576122936121a5565b5b61229f848285612256565b509392505050565b600082601f8301126122bc576122bb6121a0565b5b81356122cc848260208601612265565b91505092915050565b600080600080608085870312156122ef576122ee611d6e565b5b60006122fd87828801611fbb565b945050602061230e87828801611fbb565b935050604061231f87828801611f06565b925050606085013567ffffffffffffffff8111156123405761233f611d73565b5b61234c878288016122a7565b91505092959194509250565b6000806040838503121561236f5761236e611d6e565b5b600061237d85828601611fbb565b925050602061238e85828601611fbb565b9150509250929050565b7f4e487b7100000000000000000000000000000000000000000000000000000000600052602260045260246000fd5b600060028204905060018216806123df57607f821691505b6020821081036123f2576123f1612398565b5b50919050565b7f537570706c79204d61786564204f757400000000000000000000000000000000600082015250565b600061242e601083611e3e565b9150612439826123f8565b602082019050919050565b6000602082019050818103600083015261245d81612421565b9050919050565b60008151905061247381611eef565b92915050565b60006020828403121561248f5761248e611d6e565b5b600061249d84828501612464565b91505092915050565b7f496e73756666696369656e7420746f6b656e2062616c616e6365000000000000600082015250565b60006124dc601a83611e3e565b91506124e7826124a6565b602082019050919050565b6000602082019050818103600083015261250b816124cf565b9050919050565b60006040820190506125276000830185611f7a565b6125346020830184611f7a565b9392505050565b7f416c6c6f77616e6365206e6f7420736574206f7220696e73756666696369656e60008201527f7400000000000000000000000000000000000000000000000000000000000000602082015250565b6000612597602183611e3e565b91506125a28261253b565b604082019050919050565b600060208201905081810360008301526125c68161258a565b9050919050565b60006060820190506125e26000830186611f7a565b6125ef6020830185611f7a565b6125fc60408301846120dd565b949350505050565b60008151905061261381612134565b92915050565b60006020828403121561262f5761262e611d6e565b5b600061263d84828501612604565b91505092915050565b7f546f6b656e207472616e73666572206661696c65640000000000000000000000600082015250565b600061267c601583611e3e565b915061268782612646565b602082019050919050565b600060208201905081810360008301526126ab8161266f565b9050919050565b7f4e487b7100000000000000000000000000000000000000000000000000000000600052601160045260246000fd5b60006126ec82611ee5565b91507fffffffffffffffffffffffffffffffffffffffffffffffffffffffffffffffff820361271e5761271d6126b2565b5b600182019050919050565b600060608201905061273e6000830186611f7a565b61274b60208301856120dd565b6127586040830184611f7a565b949350505050565b60006040820190506127756000830185611f7a565b61278260208301846120dd565b9392505050565b600081905092915050565b600061279f82611e33565b6127a98185612789565b93506127b9818560208601611e4f565b80840191505092915050565b60006127d18285612794565b91506127dd8284612794565b91508190509392505050565b600081519050919050565b600082825260208201905092915050565b6000612810826127e9565b61281a81856127f4565b935061282a818560208601611e4f565b61283381611e79565b840191505092915050565b60006080820190506128536000830187611f7a565b6128606020830186611f7a565b61286d60408301856120dd565b818103606083015261287f8184612805565b905095945050505050565b60008151905061289981611da4565b92915050565b6000602082840312156128b5576128b4611d6e565b5b60006128c38482850161288a565b91505092915050565b7f4e487b7100000000000000000000000000000000000000000000000000000000600052601260045260246000fdfea26469706673582212205a123359cfea70ef8c5fe60aefe58729f02a26819e1eaf0edc27d8496569930c64736f6c634300081c0033",
  "linkReferences": {},
  "deployedLinkReferences": {}
}