{
  "_format": "hh-sol-artifact-1",
  "contractName": "MyNFT",
  "sourceName": "contracts/MyNFT.sol",
  "abi": [
    {
      "inputs": [
        {
          "internalType": "address",
          "name": "_erc20Token",
          "type": "address"
        },
        {
          "internalType": "uint256",
          "name": "_mintPrice",
          "type": "uint256"
        }
      ],
      "stateMutability": "nonpayable",
      "type": "constructor"
    },
    {
      "inputs": [
        {
          "internalType": "address",
          "name": "sender",
          "type": "address"
        },
        {
          "internalType": "uint256",
          "name": "tokenId",
          "type": "uint256"
        },
        {
          "internalType": "address",
          "name": "owner",
          "type": "address"
        }
      ],
      "name": "ERC721IncorrectOwner",
      "type": "error"
    },
    {
      "inputs": [
        {
          "internalType": "address",
          "name": "operator",
          "type": "address"
        },
        {
          "internalType": "uint256",
          "name": "tokenId",
          "type": "uint256"
        }
      ],
      "name": "ERC721InsufficientApproval",
      "type": "error"
    },
    {
      "inputs": [
        {
          "internalType": "address",
          "name": "approver",
          "type": "address"
        }
      ],
      "name": "ERC721InvalidApprover",
      "type": "error"
    },
    {
      "inputs": [
        {
          "internalType": "address",
          "name": "operator",
          "type": "address"
        }
      ],
      "name": "ERC721InvalidOperator",
      "type": "error"
    },
    {
      "inputs": [
        {
          "internalType": "address",
          "name": "owner",
          "type": "address"
        }
      ],
      "name": "ERC721InvalidOwner",
      "type": "error"
    },
    {
      "inputs": [
        {
          "internalType": "address",
          "name": "receiver",
          "type": "address"
        }
      ],
      "name": "ERC721InvalidReceiver",
      "type": "error"
    },
    {
      "inputs": [
        {
          "internalType": "address",
          "name": "sender",
          "type": "address"
        }
      ],
      "name": "ERC721InvalidSender",
      "type": "error"
    },
    {
      "inputs": [
        {
          "internalType": "uint256",
          "name": "tokenId",
          "type": "uint256"
        }
      ],
      "name": "ERC721NonexistentToken",
      "type": "error"
    },
    {
      "inputs": [
        {
          "internalType": "address",
          "name": "owner",
          "type": "address"
        }
      ],
      "name": "OwnableInvalidOwner",
      "type": "error"
    },
    {
      "inputs": [
        {
          "internalType": "address",
          "name": "account",
          "type": "address"
        }
      ],
      "name": "OwnableUnauthorizedAccount",
      "type": "error"
    },
    {
      "anonymous": false,
      "inputs": [
        {
          "indexed": true,
          "internalType": "address",
          "name": "owner",
          "type": "address"
        },
        {
          "indexed": true,
          "internalType": "address",
          "name": "approved",
          "type": "address"
        },
        {
          "indexed": true,
          "internalType": "uint256",
          "name": "tokenId",
          "type": "uint256"
        }
      ],
      "name": "Approval",
      "type": "event"
    },
    {
      "anonymous": false,
      "inputs": [
        {
          "indexed": true,
          "internalType": "address",
          "name": "owner",
          "type": "address"
        },
        {
          "indexed": true,
          "internalType": "address",
          "name": "operator",
          "type": "address"
        },
        {
          "indexed": false,
          "internalType": "bool",
          "name": "approved",
          "type": "bool"
        }
      ],
      "name": "ApprovalForAll",
      "type": "event"
    },
    {
      "anonymous": false,
      "inputs": [
        {
          "indexed": true,
          "internalType": "address",
          "name": "previousOwner",
          "type": "address"
        },
        {
          "indexed": true,
          "internalType": "address",
          "name": "newOwner",
          "type": "address"
        }
      ],
      "name": "OwnershipTransferred",
      "type": "event"
    },
    {
      "anonymous": false,
      "inputs": [
        {
          "indexed": true,
          "internalType": "address",
          "name": "from",
          "type": "address"
        },
        {
          "indexed": true,
          "internalType": "address",
          "name": "to",
          "type": "address"
        },
        {
          "indexed": true,
          "internalType": "uint256",
          "name": "tokenId",
          "type": "uint256"
        }
      ],
      "name": "Transfer",
      "type": "event"
    },
    {
      "inputs": [
        {
          "internalType": "address",
          "name": "to",
          "type": "address"
        },
        {
          "internalType": "uint256",
          "name": "tokenId",
          "type": "uint256"
        }
      ],
      "name": "approve",
      "outputs": [],
      "stateMutability": "nonpayable",
      "type": "function"
    },
    {
      "inputs": [
        {
          "internalType": "address",
          "name": "owner",
          "type": "address"
        }
      ],
      "name": "balanceOf",
      "outputs": [
        {
          "internalType": "uint256",
          "name": "",
          "type": "uint256"
        }
      ],
      "stateMutability": "view",
      "type": "function"
    },
    {
      "inputs": [],
      "name": "erc20Token",
      "outputs": [
        {
          "internalType": "contract IERC20",
          "name": "",
          "type": "address"
        }
      ],
      "stateMutability": "view",
      "type": "function"
    },
    {
      "inputs": [
        {
          "internalType": "uint256",
          "name": "tokenId",
          "type": "uint256"
        }
      ],
      "name": "getApproved",
      "outputs": [
        {
          "internalType": "address",
          "name": "",
          "type": "address"
        }
      ],
      "stateMutability": "view",
      "type": "function"
    },
    {
      "inputs": [
        {
          "internalType": "address",
          "name": "owner",
          "type": "address"
        },
        {
          "internalType": "address",
          "name": "operator",
          "type": "address"
        }
      ],
      "name": "isApprovedForAll",
      "outputs": [
        {
          "internalType": "bool",
          "name": "",
          "type": "bool"
        }
      ],
      "stateMutability": "view",
      "type": "function"
    },
    {
      "inputs": [],
      "name": "mint",
      "outputs": [],
      "stateMutability": "nonpayable",
      "type": "function"
    },
    {
      "inputs": [],
      "name": "mintPrice",
      "outputs": [
        {
          "internalType": "uint256",
          "name": "",
          "type": "uint256"
        }
      ],
      "stateMutability": "view",
      "type": "function"
    },
    {
      "inputs": [],
      "name": "name",
      "outputs": [
        {
          "internalType": "string",
          "name": "",
          "type": "string"
        }
      ],
      "stateMutability": "view",
      "type": "function"
    },
    {
      "inputs": [],
      "name": "owner",
      "outputs": [
        {
          "internalType": "address",
          "name": "",
          "type": "address"
        }
      ],
      "stateMutability": "view",
      "type": "function"
    },
    {
      "inputs": [
        {
          "internalType": "uint256",
          "name": "tokenId",
          "type": "uint256"
        }
      ],
      "name": "ownerOf",
      "outputs": [
        {
          "internalType": "address",
          "name": "",
          "type": "address"
        }
      ],
      "stateMutability": "view",
      "type": "function"
    },
    {
      "inputs": [],
      "name": "renounceOwnership",
      "outputs": [],
      "stateMutability": "nonpayable",
      "type": "function"
    },
    {
      "inputs": [
        {
          "internalType": "address",
          "name": "from",
          "type": "address"
        },
        {
          "internalType": "address",
          "name": "to",
          "type": "address"
        },
        {
          "internalType": "uint256",
          "name": "tokenId",
          "type": "uint256"
        }
      ],
      "name": "safeTransferFrom",
      "outputs": [],
      "stateMutability": "nonpayable",
      "type": "function"
    },
    {
      "inputs": [
        {
          "internalType": "address",
          "name": "from",
          "type": "address"
        },
        {
          "internalType": "address",
          "name": "to",
          "type": "address"
        },
        {
          "internalType": "uint256",
          "name": "tokenId",
          "type": "uint256"
        },
        {
          "internalType": "bytes",
          "name": "data",
          "type": "bytes"
        }
      ],
      "name": "safeTransferFrom",
      "outputs": [],
      "stateMutability": "nonpayable",
      "type": "function"
    },
    {
      "inputs": [
        {
          "internalType": "address",
          "name": "operator",
          "type": "address"
        },
        {
          "internalType": "bool",
          "name": "approved",
          "type": "bool"
        }
      ],
      "name": "setApprovalForAll",
      "outputs": [],
      "stateMutability": "nonpayable",
      "type": "function"
    },
    {
      "inputs": [
        {
          "internalType": "uint256",
          "name": "_mintPrice",
          "type": "uint256"
        }
      ],
      "name": "setMintPrice",
      "outputs": [],
      "stateMutability": "nonpayable",
      "type": "function"
    },
    {
      "inputs": [
        {
          "internalType": "bytes4",
          "name": "interfaceId",
          "type": "bytes4"
        }
      ],
      "name": "supportsInterface",
      "outputs": [
        {
          "internalType": "bool",
          "name": "",
          "type": "bool"
        }
      ],
      "stateMutability": "view",
      "type": "function"
    },
    {
      "inputs": [],
      "name": "symbol",
      "outputs": [
        {
          "internalType": "string",
          "name": "",
          "type": "string"
        }
      ],
      "stateMutability": "view",
      "type": "function"
    },
    {
      "inputs": [],
      "name": "tokenCounter",
      "outputs": [
        {
          "internalType": "uint256",
          "name": "",
          "type": "uint256"
        }
      ],
      "stateMutability": "view",
      "type": "function"
    },
    {
      "inputs": [
        {
          "internalType": "uint256",
          "name": "tokenId",
          "type": "uint256"
        }
      ],
      "name": "tokenURI",
      "outputs": [
        {
          "internalType": "string",
          "name": "",
          "type": "string"
        }
      ],
      "stateMutability": "view",
      "type": "function"
    },
    {
      "inputs": [
        {
          "internalType": "address",
          "name": "from",
          "type": "address"
        },
        {
          "internalType": "address",
          "name": "to",
          "type": "address"
        },
        {
          "internalType": "uint256",
          "name": "tokenId",
          "type": "uint256"
        }
      ],
      "name": "transferFrom",
      "outputs": [],
      "stateMutability": "nonpayable",
      "type": "function"
    },
    {
      "inputs": [
        {
          "internalType": "address",
          "name": "newOwner",
          "type": "address"
        }
      ],
      "name": "transferOwnership",
      "outputs": [],
      "stateMutability": "nonpayable",
      "type": "function"
    },
    {
      "inputs": [],
      "name": "withdrawERC20",
      "outputs": [],
      "stateMutability": "nonpayable",
      "type": "function"
    }
  ],
  "bytecode": "0x608060405234801561001057600080fd5b50604051612dfb380380612dfb833981810160405281019061003291906102f9565b336040518060400160405280600581526020017f4d794e46540000000000000000000000000000000000000000000000000000008152506040518060400160405280600481526020017f4d4e46540000000000000000000000000000000000000000000000000000000081525081600090816100ae919061057f565b5080600190816100be919061057f565b505050600073ffffffffffffffffffffffffffffffffffffffff168173ffffffffffffffffffffffffffffffffffffffff16036101335760006040517f1e4fbdf700000000000000000000000000000000000000000000000000000000815260040161012a9190610660565b60405180910390fd5b6101428161019a60201b60201c565b5081600760006101000a81548173ffffffffffffffffffffffffffffffffffffffff021916908373ffffffffffffffffffffffffffffffffffffffff160217905550806008819055506000600981905550505061067b565b6000600660009054906101000a900473ffffffffffffffffffffffffffffffffffffffff16905081600660006101000a81548173ffffffffffffffffffffffffffffffffffffffff021916908373ffffffffffffffffffffffffffffffffffffffff1602179055508173ffffffffffffffffffffffffffffffffffffffff168173ffffffffffffffffffffffffffffffffffffffff167f8be0079c531659141344cd1fd0a4f28419497f9722a3daafe3b4186f6b6457e060405160405180910390a35050565b600080fd5b600073ffffffffffffffffffffffffffffffffffffffff82169050919050565b600061029082610265565b9050919050565b6102a081610285565b81146102ab57600080fd5b50565b6000815190506102bd81610297565b92915050565b6000819050919050565b6102d6816102c3565b81146102e157600080fd5b50565b6000815190506102f3816102cd565b92915050565b600080604083850312156103105761030f610260565b5b600061031e858286016102ae565b925050602061032f858286016102e4565b9150509250929050565b600081519050919050565b7f4e487b7100000000000000000000000000000000000000000000000000000000600052604160045260246000fd5b7f4e487b7100000000000000000000000000000000000000000000000000000000600052602260045260246000fd5b600060028204905060018216806103ba57607f821691505b6020821081036103cd576103cc610373565b5b50919050565b60008190508160005260206000209050919050565b60006020601f8301049050919050565b600082821b905092915050565b6000600883026104357fffffffffffffffffffffffffffffffffffffffffffffffffffffffffffffffff826103f8565b61043f86836103f8565b95508019841693508086168417925050509392505050565b6000819050919050565b600061047c610477610472846102c3565b610457565b6102c3565b9050919050565b6000819050919050565b61049683610461565b6104aa6104a282610483565b848454610405565b825550505050565b600090565b6104bf6104b2565b6104ca81848461048d565b505050565b5b818110156104ee576104e36000826104b7565b6001810190506104d0565b5050565b601f82111561053357610504816103d3565b61050d846103e8565b8101602085101561051c578190505b610530610528856103e8565b8301826104cf565b50505b505050565b600082821c905092915050565b600061055660001984600802610538565b1980831691505092915050565b600061056f8383610545565b9150826002028217905092915050565b61058882610339565b67ffffffffffffffff8111156105a1576105a0610344565b5b6105ab82546103a2565b6105b68282856104f2565b600060209050601f8311600181146105e957600084156105d7578287015190505b6105e18582610563565b865550610649565b601f1984166105f7866103d3565b60005b8281101561061f578489015182556001820191506020850194506020810190506105fa565b8683101561063c5784890151610638601f891682610545565b8355505b6001600288020188555050505b505050505050565b61065a81610285565b82525050565b60006020820190506106756000830184610651565b92915050565b6127718061068a6000396000f3fe608060405234801561001057600080fd5b50600436106101425760003560e01c8063715018a6116100b8578063b88d4fde1161007c578063b88d4fde1461032b578063c87b56dd14610347578063d082e38114610377578063e985e9c514610395578063f2fde38b146103c5578063f4a0a528146103e157610142565b8063715018a6146102ab5780638a13eea7146102b55780638da5cb5b146102d357806395d89b41146102f1578063a22cb4651461030f57610142565b806323b872dd1161010a57806323b872dd146101eb5780632ed6d5e81461020757806342842e0e146102115780636352211e1461022d5780636817c76c1461025d57806370a082311461027b57610142565b806301ffc9a71461014757806306fdde0314610177578063081812fc14610195578063095ea7b3146101c55780631249c58b146101e1575b600080fd5b610161600480360381019061015c9190611d0e565b6103fd565b60405161016e9190611d56565b60405180910390f35b61017f6104df565b60405161018c9190611e01565b60405180910390f35b6101af60048036038101906101aa9190611e59565b610571565b6040516101bc9190611ec7565b60405180910390f35b6101df60048036038101906101da9190611f0e565b61058d565b005b6101e96105a3565b005b61020560048036038101906102009190611f4e565b61078e565b005b61020f610890565b005b61022b60048036038101906102269190611f4e565b610a1a565b005b61024760048036038101906102429190611e59565b610a3a565b6040516102549190611ec7565b60405180910390f35b610265610a4c565b6040516102729190611fb0565b60405180910390f35b61029560048036038101906102909190611fcb565b610a52565b6040516102a29190611fb0565b60405180910390f35b6102b3610b0c565b005b6102bd610b20565b6040516102ca9190612057565b60405180910390f35b6102db610b46565b6040516102e89190611ec7565b60405180910390f35b6102f9610b70565b6040516103069190611e01565b60405180910390f35b6103296004803603810190610324919061209e565b610c02565b005b61034560048036038101906103409190612213565b610c18565b005b610361600480360381019061035c9190611e59565b610c3d565b60405161036e9190611e01565b60405180910390f35b61037f610ca6565b60405161038c9190611fb0565b60405180910390f35b6103af60048036038101906103aa9190612296565b610cac565b6040516103bc9190611d56565b60405180910390f35b6103df60048036038101906103da9190611fcb565b610d40565b005b6103fb60048036038101906103f69190611e59565b610dc6565b005b60007f80ac58cd000000000000000000000000000000000000000000000000000000007bffffffffffffffffffffffffffffffffffffffffffffffffffffffff1916827bffffffffffffffffffffffffffffffffffffffffffffffffffffffff191614806104c857507f5b5e139f000000000000000000000000000000000000000000000000000000007bffffffffffffffffffffffffffffffffffffffffffffffffffffffff1916827bffffffffffffffffffffffffffffffffffffffffffffffffffffffff1916145b806104d857506104d782610dd8565b5b9050919050565b6060600080546104ee90612305565b80601f016020809104026020016040519081016040528092919081815260200182805461051a90612305565b80156105675780601f1061053c57610100808354040283529160200191610567565b820191906000526020600020905b81548152906001019060200180831161054a57829003601f168201915b5050505050905090565b600061057c82610e42565b5061058682610eca565b9050919050565b61059f828261059a610f07565b610f0f565b5050565b600854600760009054906101000a900473ffffffffffffffffffffffffffffffffffffffff1673ffffffffffffffffffffffffffffffffffffffff1663dd62ed3e33306040518363ffffffff1660e01b8152600401610603929190612336565b602060405180830381865afa158015610620573d6000803e3d6000fd5b505050506040513d601f19601f820116820180604052508101906106449190612374565b1015610685576040517f08c379a000000000000000000000000000000000000000000000000000000000815260040161067c906123ed565b60405180910390fd5b600760009054906101000a900473ffffffffffffffffffffffffffffffffffffffff1673ffffffffffffffffffffffffffffffffffffffff166323b872dd33306008546040518463ffffffff1660e01b81526004016106e69392919061240d565b6020604051808303816000875af1158015610705573d6000803e3d6000fd5b505050506040513d601f19601f820116820180604052508101906107299190612459565b610768576040517f08c379a000000000000000000000000000000000000000000000000000000000815260040161075f906124d2565b60405180910390fd5b61077433600954610f21565b6009600081548092919061078790612521565b9190505550565b600073ffffffffffffffffffffffffffffffffffffffff168273ffffffffffffffffffffffffffffffffffffffff16036108005760006040517f64a0ae920000000000000000000000000000000000000000000000000000000081526004016107f79190611ec7565b60405180910390fd5b6000610814838361080f610f07565b610f3f565b90508373ffffffffffffffffffffffffffffffffffffffff168173ffffffffffffffffffffffffffffffffffffffff161461088a578382826040517f64283d7b00000000000000000000000000000000000000000000000000000000815260040161088193929190612569565b60405180910390fd5b50505050565b610898611159565b6000600760009054906101000a900473ffffffffffffffffffffffffffffffffffffffff1673ffffffffffffffffffffffffffffffffffffffff166370a08231306040518263ffffffff1660e01b81526004016108f59190611ec7565b602060405180830381865afa158015610912573d6000803e3d6000fd5b505050506040513d601f19601f820116820180604052508101906109369190612374565b9050600760009054906101000a900473ffffffffffffffffffffffffffffffffffffffff1673ffffffffffffffffffffffffffffffffffffffff1663a9059cbb33836040518363ffffffff1660e01b81526004016109959291906125a0565b6020604051808303816000875af11580156109b4573d6000803e3d6000fd5b505050506040513d601f19601f820116820180604052508101906109d89190612459565b610a17576040517f08c379a0000000000000000000000000000000000000000000000000000000008152600401610a0e906124d2565b60405180910390fd5b50565b610a3583838360405180602001604052806000815250610c18565b505050565b6000610a4582610e42565b9050919050565b60085481565b60008073ffffffffffffffffffffffffffffffffffffffff168273ffffffffffffffffffffffffffffffffffffffff1603610ac55760006040517f89c62b64000000000000000000000000000000000000000000000000000000008152600401610abc9190611ec7565b60405180910390fd5b600360008373ffffffffffffffffffffffffffffffffffffffff1673ffffffffffffffffffffffffffffffffffffffff168152602001908152602001600020549050919050565b610b14611159565b610b1e60006111e0565b565b600760009054906101000a900473ffffffffffffffffffffffffffffffffffffffff1681565b6000600660009054906101000a900473ffffffffffffffffffffffffffffffffffffffff16905090565b606060018054610b7f90612305565b80601f0160208091040260200160405190810160405280929190818152602001828054610bab90612305565b8015610bf85780601f10610bcd57610100808354040283529160200191610bf8565b820191906000526020600020905b815481529060010190602001808311610bdb57829003601f168201915b5050505050905090565b610c14610c0d610f07565b83836112a6565b5050565b610c2384848461078e565b610c37610c2e610f07565b85858585611415565b50505050565b6060610c4882610e42565b506000610c536115c6565b90506000815111610c735760405180602001604052806000815250610c9e565b80610c7d846115dd565b604051602001610c8e929190612605565b6040516020818303038152906040525b915050919050565b60095481565b6000600560008473ffffffffffffffffffffffffffffffffffffffff1673ffffffffffffffffffffffffffffffffffffffff16815260200190815260200160002060008373ffffffffffffffffffffffffffffffffffffffff1673ffffffffffffffffffffffffffffffffffffffff16815260200190815260200160002060009054906101000a900460ff16905092915050565b610d48611159565b600073ffffffffffffffffffffffffffffffffffffffff168173ffffffffffffffffffffffffffffffffffffffff1603610dba5760006040517f1e4fbdf7000000000000000000000000000000000000000000000000000000008152600401610db19190611ec7565b60405180910390fd5b610dc3816111e0565b50565b610dce611159565b8060088190555050565b60007f01ffc9a7000000000000000000000000000000000000000000000000000000007bffffffffffffffffffffffffffffffffffffffffffffffffffffffff1916827bffffffffffffffffffffffffffffffffffffffffffffffffffffffff1916149050919050565b600080610e4e836116ab565b9050600073ffffffffffffffffffffffffffffffffffffffff168173ffffffffffffffffffffffffffffffffffffffff1603610ec157826040517f7e273289000000000000000000000000000000000000000000000000000000008152600401610eb89190611fb0565b60405180910390fd5b80915050919050565b60006004600083815260200190815260200160002060009054906101000a900473ffffffffffffffffffffffffffffffffffffffff169050919050565b600033905090565b610f1c83838360016116e8565b505050565b610f3b8282604051806020016040528060008152506118ad565b5050565b600080610f4b846116ab565b9050600073ffffffffffffffffffffffffffffffffffffffff168373ffffffffffffffffffffffffffffffffffffffff1614610f8d57610f8c8184866118d1565b5b600073ffffffffffffffffffffffffffffffffffffffff168173ffffffffffffffffffffffffffffffffffffffff161461101e57610fcf6000856000806116e8565b6001600360008373ffffffffffffffffffffffffffffffffffffffff1673ffffffffffffffffffffffffffffffffffffffff168152602001908152602001600020600082825403925050819055505b600073ffffffffffffffffffffffffffffffffffffffff168573ffffffffffffffffffffffffffffffffffffffff16146110a1576001600360008773ffffffffffffffffffffffffffffffffffffffff1673ffffffffffffffffffffffffffffffffffffffff168152602001908152602001600020600082825401925050819055505b846002600086815260200190815260200160002060006101000a81548173ffffffffffffffffffffffffffffffffffffffff021916908373ffffffffffffffffffffffffffffffffffffffff160217905550838573ffffffffffffffffffffffffffffffffffffffff168273ffffffffffffffffffffffffffffffffffffffff167fddf252ad1be2c89b69c2b068fc378daa952ba7f163c4a11628f55a4df523b3ef60405160405180910390a4809150509392505050565b611161610f07565b73ffffffffffffffffffffffffffffffffffffffff1661117f610b46565b73ffffffffffffffffffffffffffffffffffffffff16146111de576111a2610f07565b6040517f118cdaa70000000000000000000000000000000000000000000000000000000081526004016111d59190611ec7565b60405180910390fd5b565b6000600660009054906101000a900473ffffffffffffffffffffffffffffffffffffffff16905081600660006101000a81548173ffffffffffffffffffffffffffffffffffffffff021916908373ffffffffffffffffffffffffffffffffffffffff1602179055508173ffffffffffffffffffffffffffffffffffffffff168173ffffffffffffffffffffffffffffffffffffffff167f8be0079c531659141344cd1fd0a4f28419497f9722a3daafe3b4186f6b6457e060405160405180910390a35050565b600073ffffffffffffffffffffffffffffffffffffffff168273ffffffffffffffffffffffffffffffffffffffff160361131757816040517f5b08ba1800000000000000000000000000000000000000000000000000000000815260040161130e9190611ec7565b60405180910390fd5b80600560008573ffffffffffffffffffffffffffffffffffffffff1673ffffffffffffffffffffffffffffffffffffffff16815260200190815260200160002060008473ffffffffffffffffffffffffffffffffffffffff1673ffffffffffffffffffffffffffffffffffffffff16815260200190815260200160002060006101000a81548160ff0219169083151502179055508173ffffffffffffffffffffffffffffffffffffffff168373ffffffffffffffffffffffffffffffffffffffff167f17307eab39ab6107e8899845ad3d59bd9653f200f220920489ca2b5937696c31836040516114089190611d56565b60405180910390a3505050565b60008373ffffffffffffffffffffffffffffffffffffffff163b11156115bf578273ffffffffffffffffffffffffffffffffffffffff1663150b7a02868685856040518563ffffffff1660e01b8152600401611474949392919061267e565b6020604051808303816000875af19250505080156114b057506040513d601f19601f820116820180604052508101906114ad91906126df565b60015b611534573d80600081146114e0576040519150601f19603f3d011682016040523d82523d6000602084013e6114e5565b606091505b50600081510361152c57836040517f64a0ae920000000000000000000000000000000000000000000000000000000081526004016115239190611ec7565b60405180910390fd5b805181602001fd5b63150b7a0260e01b7bffffffffffffffffffffffffffffffffffffffffffffffffffffffff1916817bffffffffffffffffffffffffffffffffffffffffffffffffffffffff1916146115bd57836040517f64a0ae920000000000000000000000000000000000000000000000000000000081526004016115b49190611ec7565b60405180910390fd5b505b5050505050565b606060405180602001604052806000815250905090565b6060600060016115ec84611995565b01905060008167ffffffffffffffff81111561160b5761160a6120e8565b5b6040519080825280601f01601f19166020018201604052801561163d5781602001600182028036833780820191505090505b509050600082602001820190505b6001156116a0578080600190039150507f3031323334353637383961626364656600000000000000000000000000000000600a86061a8153600a85816116945761169361270c565b5b0494506000850361164b575b819350505050919050565b60006002600083815260200190815260200160002060009054906101000a900473ffffffffffffffffffffffffffffffffffffffff169050919050565b80806117215750600073ffffffffffffffffffffffffffffffffffffffff168273ffffffffffffffffffffffffffffffffffffffff1614155b1561185557600061173184610e42565b9050600073ffffffffffffffffffffffffffffffffffffffff168373ffffffffffffffffffffffffffffffffffffffff161415801561179c57508273ffffffffffffffffffffffffffffffffffffffff168173ffffffffffffffffffffffffffffffffffffffff1614155b80156117af57506117ad8184610cac565b155b156117f157826040517fa9fbf51f0000000000000000000000000000000000000000000000000000000081526004016117e89190611ec7565b60405180910390fd5b811561185357838573ffffffffffffffffffffffffffffffffffffffff168273ffffffffffffffffffffffffffffffffffffffff167f8c5be1e5ebec7d5bd14f71427d1e84f3dd0314c0f7b2291e5b200ac8c7c3b92560405160405180910390a45b505b836004600085815260200190815260200160002060006101000a81548173ffffffffffffffffffffffffffffffffffffffff021916908373ffffffffffffffffffffffffffffffffffffffff16021790555050505050565b6118b78383611ae8565b6118cc6118c2610f07565b6000858585611415565b505050565b6118dc838383611be1565b61199057600073ffffffffffffffffffffffffffffffffffffffff168373ffffffffffffffffffffffffffffffffffffffff160361195157806040517f7e2732890000000000000000000000000000000000000000000000000000000081526004016119489190611fb0565b60405180910390fd5b81816040517f177e802f0000000000000000000000000000000000000000000000000000000081526004016119879291906125a0565b60405180910390fd5b505050565b600080600090507a184f03e93ff9f4daa797ed6e38ed64bf6a1f01000000000000000083106119f3577a184f03e93ff9f4daa797ed6e38ed64bf6a1f01000000000000000083816119e9576119e861270c565b5b0492506040810190505b6d04ee2d6d415b85acef81000000008310611a30576d04ee2d6d415b85acef81000000008381611a2657611a2561270c565b5b0492506020810190505b662386f26fc100008310611a5f57662386f26fc100008381611a5557611a5461270c565b5b0492506010810190505b6305f5e1008310611a88576305f5e1008381611a7e57611a7d61270c565b5b0492506008810190505b6127108310611aad576127108381611aa357611aa261270c565b5b0492506004810190505b60648310611ad05760648381611ac657611ac561270c565b5b0492506002810190505b600a8310611adf576001810190505b80915050919050565b600073ffffffffffffffffffffffffffffffffffffffff168273ffffffffffffffffffffffffffffffffffffffff1603611b5a5760006040517f64a0ae92000000000000000000000000000000000000000000000000000000008152600401611b519190611ec7565b60405180910390fd5b6000611b6883836000610f3f565b9050600073ffffffffffffffffffffffffffffffffffffffff168173ffffffffffffffffffffffffffffffffffffffff1614611bdc5760006040517f73c6ac6e000000000000000000000000000000000000000000000000000000008152600401611bd39190611ec7565b60405180910390fd5b505050565b60008073ffffffffffffffffffffffffffffffffffffffff168373ffffffffffffffffffffffffffffffffffffffff1614158015611c9957508273ffffffffffffffffffffffffffffffffffffffff168473ffffffffffffffffffffffffffffffffffffffff161480611c5a5750611c598484610cac565b5b80611c9857508273ffffffffffffffffffffffffffffffffffffffff16611c8083610eca565b73ffffffffffffffffffffffffffffffffffffffff16145b5b90509392505050565b6000604051905090565b600080fd5b600080fd5b60007fffffffff0000000000000000000000000000000000000000000000000000000082169050919050565b611ceb81611cb6565b8114611cf657600080fd5b50565b600081359050611d0881611ce2565b92915050565b600060208284031215611d2457611d23611cac565b5b6000611d3284828501611cf9565b91505092915050565b60008115159050919050565b611d5081611d3b565b82525050565b6000602082019050611d6b6000830184611d47565b92915050565b600081519050919050565b600082825260208201905092915050565b60005b83811015611dab578082015181840152602081019050611d90565b60008484015250505050565b6000601f19601f8301169050919050565b6000611dd382611d71565b611ddd8185611d7c565b9350611ded818560208601611d8d565b611df681611db7565b840191505092915050565b60006020820190508181036000830152611e1b8184611dc8565b905092915050565b6000819050919050565b611e3681611e23565b8114611e4157600080fd5b50565b600081359050611e5381611e2d565b92915050565b600060208284031215611e6f57611e6e611cac565b5b6000611e7d84828501611e44565b91505092915050565b600073ffffffffffffffffffffffffffffffffffffffff82169050919050565b6000611eb182611e86565b9050919050565b611ec181611ea6565b82525050565b6000602082019050611edc6000830184611eb8565b92915050565b611eeb81611ea6565b8114611ef657600080fd5b50565b600081359050611f0881611ee2565b92915050565b60008060408385031215611f2557611f24611cac565b5b6000611f3385828601611ef9565b9250506020611f4485828601611e44565b9150509250929050565b600080600060608486031215611f6757611f66611cac565b5b6000611f7586828701611ef9565b9350506020611f8686828701611ef9565b9250506040611f9786828701611e44565b9150509250925092565b611faa81611e23565b82525050565b6000602082019050611fc56000830184611fa1565b92915050565b600060208284031215611fe157611fe0611cac565b5b6000611fef84828501611ef9565b91505092915050565b6000819050919050565b600061201d61201861201384611e86565b611ff8565b611e86565b9050919050565b600061202f82612002565b9050919050565b600061204182612024565b9050919050565b61205181612036565b82525050565b600060208201905061206c6000830184612048565b92915050565b61207b81611d3b565b811461208657600080fd5b50565b60008135905061209881612072565b92915050565b600080604083850312156120b5576120b4611cac565b5b60006120c385828601611ef9565b92505060206120d485828601612089565b9150509250929050565b600080fd5b600080fd5b7f4e487b7100000000000000000000000000000000000000000000000000000000600052604160045260246000fd5b61212082611db7565b810181811067ffffffffffffffff8211171561213f5761213e6120e8565b5b80604052505050565b6000612152611ca2565b905061215e8282612117565b919050565b600067ffffffffffffffff82111561217e5761217d6120e8565b5b61218782611db7565b9050602081019050919050565b82818337600083830152505050565b60006121b66121b184612163565b612148565b9050828152602081018484840111156121d2576121d16120e3565b5b6121dd848285612194565b509392505050565b600082601f8301126121fa576121f96120de565b5b813561220a8482602086016121a3565b91505092915050565b6000806000806080858703121561222d5761222c611cac565b5b600061223b87828801611ef9565b945050602061224c87828801611ef9565b935050604061225d87828801611e44565b925050606085013567ffffffffffffffff81111561227e5761227d611cb1565b5b61228a878288016121e5565b91505092959194509250565b600080604083850312156122ad576122ac611cac565b5b60006122bb85828601611ef9565b92505060206122cc85828601611ef9565b9150509250929050565b7f4e487b7100000000000000000000000000000000000000000000000000000000600052602260045260246000fd5b6000600282049050600182168061231d57607f821691505b6020821081036123305761232f6122d6565b5b50919050565b600060408201905061234b6000830185611eb8565b6123586020830184611eb8565b9392505050565b60008151905061236e81611e2d565b92915050565b60006020828403121561238a57612389611cac565b5b60006123988482850161235f565b91505092915050565b7f416c6c6f77616e6365206e6f7420736574000000000000000000000000000000600082015250565b60006123d7601183611d7c565b91506123e2826123a1565b602082019050919050565b60006020820190508181036000830152612406816123ca565b9050919050565b60006060820190506124226000830186611eb8565b61242f6020830185611eb8565b61243c6040830184611fa1565b949350505050565b60008151905061245381612072565b92915050565b60006020828403121561246f5761246e611cac565b5b600061247d84828501612444565b91505092915050565b7f5472616e73666572206661696c65640000000000000000000000000000000000600082015250565b60006124bc600f83611d7c565b91506124c782612486565b602082019050919050565b600060208201905081810360008301526124eb816124af565b9050919050565b7f4e487b7100000000000000000000000000000000000000000000000000000000600052601160045260246000fd5b600061252c82611e23565b91507fffffffffffffffffffffffffffffffffffffffffffffffffffffffffffffffff820361255e5761255d6124f2565b5b600182019050919050565b600060608201905061257e6000830186611eb8565b61258b6020830185611fa1565b6125986040830184611eb8565b949350505050565b60006040820190506125b56000830185611eb8565b6125c26020830184611fa1565b9392505050565b600081905092915050565b60006125df82611d71565b6125e981856125c9565b93506125f9818560208601611d8d565b80840191505092915050565b600061261182856125d4565b915061261d82846125d4565b91508190509392505050565b600081519050919050565b600082825260208201905092915050565b600061265082612629565b61265a8185612634565b935061266a818560208601611d8d565b61267381611db7565b840191505092915050565b60006080820190506126936000830187611eb8565b6126a06020830186611eb8565b6126ad6040830185611fa1565b81810360608301526126bf8184612645565b905095945050505050565b6000815190506126d981611ce2565b92915050565b6000602082840312156126f5576126f4611cac565b5b6000612703848285016126ca565b91505092915050565b7f4e487b7100000000000000000000000000000000000000000000000000000000600052601260045260246000fdfea26469706673582212204466c24b853b6fa55e224b6153b1b5be5543ee45b3fca97260013328853c37af64736f6c634300081c0033",
  "linkReferences": {},
  "deployedLinkReferences": {}
}