{
  "_format": "hh-sol-artifact-1",
  "contractName": "MyNFT",
  "sourceName": "contracts/MyNFT.sol",
  "abi": [
    {
      "inputs": [
        {
          "internalType": "string",
          "name": "_name",
          "type": "string"
        },
        {
          "internalType": "string",
          "name": "_symbol",
          "type": "string"
        },
        {
          "internalType": "address",
          "name": "_paymentToken",
          "type": "address"
        },
        {
          "internalType": "uint256",
          "name": "_mintPrice",
          "type": "uint256"
        },
        {
          "internalType": "uint256",
          "name": "_maxSupply",
          "type": "uint256"
        }
      ],
      "stateMutability": "nonpayable",
      "type": "constructor"
    },
    {
      "inputs": [
        {
          "internalType": "address",
          "name": "sender",
          "type": "address"
        },
        {
          "internalType": "uint256",
          "name": "tokenId",
          "type": "uint256"
        },
        {
          "internalType": "address",
          "name": "owner",
          "type": "address"
        }
      ],
      "name": "ERC721IncorrectOwner",
      "type": "error"
    },
    {
      "inputs": [
        {
          "internalType": "address",
          "name": "operator",
          "type": "address"
        },
        {
          "internalType": "uint256",
          "name": "tokenId",
          "type": "uint256"
        }
      ],
      "name": "ERC721InsufficientApproval",
      "type": "error"
    },
    {
      "inputs": [
        {
          "internalType": "address",
          "name": "approver",
          "type": "address"
        }
      ],
      "name": "ERC721InvalidApprover",
      "type": "error"
    },
    {
      "inputs": [
        {
          "internalType": "address",
          "name": "operator",
          "type": "address"
        }
      ],
      "name": "ERC721InvalidOperator",
      "type": "error"
    },
    {
      "inputs": [
        {
          "internalType": "address",
          "name": "owner",
          "type": "address"
        }
      ],
      "name": "ERC721InvalidOwner",
      "type": "error"
    },
    {
      "inputs": [
        {
          "internalType": "address",
          "name": "receiver",
          "type": "address"
        }
      ],
      "name": "ERC721InvalidReceiver",
      "type": "error"
    },
    {
      "inputs": [
        {
          "internalType": "address",
          "name": "sender",
          "type": "address"
        }
      ],
      "name": "ERC721InvalidSender",
      "type": "error"
    },
    {
      "inputs": [
        {
          "internalType": "uint256",
          "name": "tokenId",
          "type": "uint256"
        }
      ],
      "name": "ERC721NonexistentToken",
      "type": "error"
    },
    {
      "inputs": [
        {
          "internalType": "address",
          "name": "owner",
          "type": "address"
        }
      ],
      "name": "OwnableInvalidOwner",
      "type": "error"
    },
    {
      "inputs": [
        {
          "internalType": "address",
          "name": "account",
          "type": "address"
        }
      ],
      "name": "OwnableUnauthorizedAccount",
      "type": "error"
    },
    {
      "anonymous": false,
      "inputs": [
        {
          "indexed": true,
          "internalType": "address",
          "name": "owner",
          "type": "address"
        },
        {
          "indexed": true,
          "internalType": "address",
          "name": "approved",
          "type": "address"
        },
        {
          "indexed": true,
          "internalType": "uint256",
          "name": "tokenId",
          "type": "uint256"
        }
      ],
      "name": "Approval",
      "type": "event"
    },
    {
      "anonymous": false,
      "inputs": [
        {
          "indexed": true,
          "internalType": "address",
          "name": "owner",
          "type": "address"
        },
        {
          "indexed": true,
          "internalType": "address",
          "name": "operator",
          "type": "address"
        },
        {
          "indexed": false,
          "internalType": "bool",
          "name": "approved",
          "type": "bool"
        }
      ],
      "name": "ApprovalForAll",
      "type": "event"
    },
    {
      "anonymous": false,
      "inputs": [
        {
          "indexed": true,
          "internalType": "address",
          "name": "previousOwner",
          "type": "address"
        },
        {
          "indexed": true,
          "internalType": "address",
          "name": "newOwner",
          "type": "address"
        }
      ],
      "name": "OwnershipTransferred",
      "type": "event"
    },
    {
      "anonymous": false,
      "inputs": [
        {
          "indexed": true,
          "internalType": "address",
          "name": "from",
          "type": "address"
        },
        {
          "indexed": true,
          "internalType": "address",
          "name": "to",
          "type": "address"
        },
        {
          "indexed": true,
          "internalType": "uint256",
          "name": "tokenId",
          "type": "uint256"
        }
      ],
      "name": "Transfer",
      "type": "event"
    },
    {
      "inputs": [
        {
          "internalType": "address",
          "name": "to",
          "type": "address"
        },
        {
          "internalType": "uint256",
          "name": "tokenId",
          "type": "uint256"
        }
      ],
      "name": "approve",
      "outputs": [],
      "stateMutability": "nonpayable",
      "type": "function"
    },
    {
      "inputs": [
        {
          "internalType": "address",
          "name": "owner",
          "type": "address"
        }
      ],
      "name": "balanceOf",
      "outputs": [
        {
          "internalType": "uint256",
          "name": "",
          "type": "uint256"
        }
      ],
      "stateMutability": "view",
      "type": "function"
    },
    {
      "inputs": [
        {
          "internalType": "uint256",
          "name": "tokenId",
          "type": "uint256"
        }
      ],
      "name": "getApproved",
      "outputs": [
        {
          "internalType": "address",
          "name": "",
          "type": "address"
        }
      ],
      "stateMutability": "view",
      "type": "function"
    },
    {
      "inputs": [],
      "name": "getCurrentTokenId",
      "outputs": [
        {
          "internalType": "uint256",
          "name": "",
          "type": "uint256"
        }
      ],
      "stateMutability": "view",
      "type": "function"
    },
    {
      "inputs": [
        {
          "internalType": "address",
          "name": "owner",
          "type": "address"
        },
        {
          "internalType": "address",
          "name": "operator",
          "type": "address"
        }
      ],
      "name": "isApprovedForAll",
      "outputs": [
        {
          "internalType": "bool",
          "name": "",
          "type": "bool"
        }
      ],
      "stateMutability": "view",
      "type": "function"
    },
    {
      "inputs": [],
      "name": "maxSupply",
      "outputs": [
        {
          "internalType": "uint256",
          "name": "",
          "type": "uint256"
        }
      ],
      "stateMutability": "view",
      "type": "function"
    },
    {
      "inputs": [],
      "name": "mint",
      "outputs": [],
      "stateMutability": "nonpayable",
      "type": "function"
    },
    {
      "inputs": [],
      "name": "mintPrice",
      "outputs": [
        {
          "internalType": "uint256",
          "name": "",
          "type": "uint256"
        }
      ],
      "stateMutability": "view",
      "type": "function"
    },
    {
      "inputs": [],
      "name": "name",
      "outputs": [
        {
          "internalType": "string",
          "name": "",
          "type": "string"
        }
      ],
      "stateMutability": "view",
      "type": "function"
    },
    {
      "inputs": [],
      "name": "owner",
      "outputs": [
        {
          "internalType": "address",
          "name": "",
          "type": "address"
        }
      ],
      "stateMutability": "view",
      "type": "function"
    },
    {
      "inputs": [
        {
          "internalType": "uint256",
          "name": "tokenId",
          "type": "uint256"
        }
      ],
      "name": "ownerOf",
      "outputs": [
        {
          "internalType": "address",
          "name": "",
          "type": "address"
        }
      ],
      "stateMutability": "view",
      "type": "function"
    },
    {
      "inputs": [],
      "name": "paymentToken",
      "outputs": [
        {
          "internalType": "contract IERC20",
          "name": "",
          "type": "address"
        }
      ],
      "stateMutability": "view",
      "type": "function"
    },
    {
      "inputs": [],
      "name": "renounceOwnership",
      "outputs": [],
      "stateMutability": "nonpayable",
      "type": "function"
    },
    {
      "inputs": [
        {
          "internalType": "address",
          "name": "from",
          "type": "address"
        },
        {
          "internalType": "address",
          "name": "to",
          "type": "address"
        },
        {
          "internalType": "uint256",
          "name": "tokenId",
          "type": "uint256"
        }
      ],
      "name": "safeTransferFrom",
      "outputs": [],
      "stateMutability": "nonpayable",
      "type": "function"
    },
    {
      "inputs": [
        {
          "internalType": "address",
          "name": "from",
          "type": "address"
        },
        {
          "internalType": "address",
          "name": "to",
          "type": "address"
        },
        {
          "internalType": "uint256",
          "name": "tokenId",
          "type": "uint256"
        },
        {
          "internalType": "bytes",
          "name": "data",
          "type": "bytes"
        }
      ],
      "name": "safeTransferFrom",
      "outputs": [],
      "stateMutability": "nonpayable",
      "type": "function"
    },
    {
      "inputs": [
        {
          "internalType": "address",
          "name": "operator",
          "type": "address"
        },
        {
          "internalType": "bool",
          "name": "approved",
          "type": "bool"
        }
      ],
      "name": "setApprovalForAll",
      "outputs": [],
      "stateMutability": "nonpayable",
      "type": "function"
    },
    {
      "inputs": [
        {
          "internalType": "bytes4",
          "name": "interfaceId",
          "type": "bytes4"
        }
      ],
      "name": "supportsInterface",
      "outputs": [
        {
          "internalType": "bool",
          "name": "",
          "type": "bool"
        }
      ],
      "stateMutability": "view",
      "type": "function"
    },
    {
      "inputs": [],
      "name": "symbol",
      "outputs": [
        {
          "internalType": "string",
          "name": "",
          "type": "string"
        }
      ],
      "stateMutability": "view",
      "type": "function"
    },
    {
      "inputs": [
        {
          "internalType": "uint256",
          "name": "tokenId",
          "type": "uint256"
        }
      ],
      "name": "tokenURI",
      "outputs": [
        {
          "internalType": "string",
          "name": "",
          "type": "string"
        }
      ],
      "stateMutability": "view",
      "type": "function"
    },
    {
      "inputs": [
        {
          "internalType": "address",
          "name": "from",
          "type": "address"
        },
        {
          "internalType": "address",
          "name": "to",
          "type": "address"
        },
        {
          "internalType": "uint256",
          "name": "tokenId",
          "type": "uint256"
        }
      ],
      "name": "transferFrom",
      "outputs": [],
      "stateMutability": "nonpayable",
      "type": "function"
    },
    {
      "inputs": [
        {
          "internalType": "address",
          "name": "newOwner",
          "type": "address"
        }
      ],
      "name": "transferOwnership",
      "outputs": [],
      "stateMutability": "nonpayable",
      "type": "function"
    },
    {
      "inputs": [],
      "name": "withdraw",
      "outputs": [],
      "stateMutability": "nonpayable",
      "type": "function"
    }
  ],
  "bytecode": "0x60e060405234801561001057600080fd5b50604051613550380380613550833981810160405281019061003291906104a8565b33858581600090816100449190610772565b5080600190816100549190610772565b505050600073ffffffffffffffffffffffffffffffffffffffff168173ffffffffffffffffffffffffffffffffffffffff16036100c95760006040517f1e4fbdf70000000000000000000000000000000000000000000000000000000081526004016100c09190610853565b60405180910390fd5b6100d8816101d960201b60201c565b50600073ffffffffffffffffffffffffffffffffffffffff168373ffffffffffffffffffffffffffffffffffffffff1603610148576040517f08c379a000000000000000000000000000000000000000000000000000000000815260040161013f906108cb565b60405180910390fd5b6000811161018b576040517f08c379a00000000000000000000000000000000000000000000000000000000081526004016101829061095d565b60405180910390fd5b8273ffffffffffffffffffffffffffffffffffffffff1660808173ffffffffffffffffffffffffffffffffffffffff16815250508160a081815250508060c08181525050505050505061097d565b6000600660009054906101000a900473ffffffffffffffffffffffffffffffffffffffff16905081600660006101000a81548173ffffffffffffffffffffffffffffffffffffffff021916908373ffffffffffffffffffffffffffffffffffffffff1602179055508173ffffffffffffffffffffffffffffffffffffffff168173ffffffffffffffffffffffffffffffffffffffff167f8be0079c531659141344cd1fd0a4f28419497f9722a3daafe3b4186f6b6457e060405160405180910390a35050565b6000604051905090565b600080fd5b600080fd5b600080fd5b600080fd5b6000601f19601f8301169050919050565b7f4e487b7100000000000000000000000000000000000000000000000000000000600052604160045260246000fd5b610306826102bd565b810181811067ffffffffffffffff82111715610325576103246102ce565b5b80604052505050565b600061033861029f565b905061034482826102fd565b919050565b600067ffffffffffffffff821115610364576103636102ce565b5b61036d826102bd565b9050602081019050919050565b60005b8381101561039857808201518184015260208101905061037d565b60008484015250505050565b60006103b76103b284610349565b61032e565b9050828152602081018484840111156103d3576103d26102b8565b5b6103de84828561037a565b509392505050565b600082601f8301126103fb576103fa6102b3565b5b815161040b8482602086016103a4565b91505092915050565b600073ffffffffffffffffffffffffffffffffffffffff82169050919050565b600061043f82610414565b9050919050565b61044f81610434565b811461045a57600080fd5b50565b60008151905061046c81610446565b92915050565b6000819050919050565b61048581610472565b811461049057600080fd5b50565b6000815190506104a28161047c565b92915050565b600080600080600060a086880312156104c4576104c36102a9565b5b600086015167ffffffffffffffff8111156104e2576104e16102ae565b5b6104ee888289016103e6565b955050602086015167ffffffffffffffff81111561050f5761050e6102ae565b5b61051b888289016103e6565b945050604061052c8882890161045d565b935050606061053d88828901610493565b925050608061054e88828901610493565b9150509295509295909350565b600081519050919050565b7f4e487b7100000000000000000000000000000000000000000000000000000000600052602260045260246000fd5b600060028204905060018216806105ad57607f821691505b6020821081036105c0576105bf610566565b5b50919050565b60008190508160005260206000209050919050565b60006020601f8301049050919050565b600082821b905092915050565b6000600883026106287fffffffffffffffffffffffffffffffffffffffffffffffffffffffffffffffff826105eb565b61063286836105eb565b95508019841693508086168417925050509392505050565b6000819050919050565b600061066f61066a61066584610472565b61064a565b610472565b9050919050565b6000819050919050565b61068983610654565b61069d61069582610676565b8484546105f8565b825550505050565b600090565b6106b26106a5565b6106bd818484610680565b505050565b5b818110156106e1576106d66000826106aa565b6001810190506106c3565b5050565b601f821115610726576106f7816105c6565b610700846105db565b8101602085101561070f578190505b61072361071b856105db565b8301826106c2565b50505b505050565b600082821c905092915050565b60006107496000198460080261072b565b1980831691505092915050565b60006107628383610738565b9150826002028217905092915050565b61077b8261055b565b67ffffffffffffffff811115610794576107936102ce565b5b61079e8254610595565b6107a98282856106e5565b600060209050601f8311600181146107dc57600084156107ca578287015190505b6107d48582610756565b86555061083c565b601f1984166107ea866105c6565b60005b82811015610812578489015182556001820191506020850194506020810190506107ed565b8683101561082f578489015161082b601f891682610738565b8355505b6001600288020188555050505b505050505050565b61084d81610434565b82525050565b60006020820190506108686000830184610844565b92915050565b600082825260208201905092915050565b7f496e76616c6964207061796d656e7420746f6b656e2061646472657373000000600082015250565b60006108b5601d8361086e565b91506108c08261087f565b602082019050919050565b600060208201905081810360008301526108e4816108a8565b9050919050565b7f4d617820737570706c79206d7573742062652067726561746572207468616e2060008201527f3000000000000000000000000000000000000000000000000000000000000000602082015250565b600061094760218361086e565b9150610952826108eb565b604082019050919050565b600060208201905081810360008301526109768161093a565b9050919050565b60805160a05160c051612b656109eb600039600081816105a70152610eba01526000818161060b01528181610707015281816108450152610c6801526000818161062c015281816107280152818161080701528181610a3201528181610a600152610b410152612b656000f3fe608060405234801561001057600080fd5b50600436106101425760003560e01c80636817c76c116100b8578063a22cb4651161007c578063a22cb4651461032d578063b88d4fde14610349578063c87b56dd14610365578063d5abeb0114610395578063e985e9c5146103b3578063f2fde38b146103e357610142565b80636817c76c1461029957806370a08231146102b7578063715018a6146102e75780638da5cb5b146102f157806395d89b411461030f57610142565b806323b872dd1161010a57806323b872dd146101eb5780633013ce29146102075780633ccfd60b1461022557806342842e0e1461022f578063561892361461024b5780636352211e1461026957610142565b806301ffc9a71461014757806306fdde0314610177578063081812fc14610195578063095ea7b3146101c55780631249c58b146101e1575b600080fd5b610161600480360381019061015c9190611f2c565b6103ff565b60405161016e9190611f74565b60405180910390f35b61017f6104e1565b60405161018c919061201f565b60405180910390f35b6101af60048036038101906101aa9190612077565b610573565b6040516101bc91906120e5565b60405180910390f35b6101df60048036038101906101da919061212c565b61058f565b005b6101e96105a5565b005b6102056004803603810190610200919061216c565b61092e565b005b61020f610a30565b60405161021c919061221e565b60405180910390f35b61022d610a54565b005b6102496004803603810190610244919061216c565b610c2a565b005b610253610c4a565b6040516102609190612248565b60405180910390f35b610283600480360381019061027e9190612077565b610c54565b60405161029091906120e5565b60405180910390f35b6102a1610c66565b6040516102ae9190612248565b60405180910390f35b6102d160048036038101906102cc9190612263565b610c8a565b6040516102de9190612248565b60405180910390f35b6102ef610d44565b005b6102f9610d58565b60405161030691906120e5565b60405180910390f35b610317610d82565b604051610324919061201f565b60405180910390f35b610347600480360381019061034291906122bc565b610e14565b005b610363600480360381019061035e9190612431565b610e2a565b005b61037f600480360381019061037a9190612077565b610e4f565b60405161038c919061201f565b60405180910390f35b61039d610eb8565b6040516103aa9190612248565b60405180910390f35b6103cd60048036038101906103c891906124b4565b610edc565b6040516103da9190611f74565b60405180910390f35b6103fd60048036038101906103f89190612263565b610f70565b005b60007f80ac58cd000000000000000000000000000000000000000000000000000000007bffffffffffffffffffffffffffffffffffffffffffffffffffffffff1916827bffffffffffffffffffffffffffffffffffffffffffffffffffffffff191614806104ca57507f5b5e139f000000000000000000000000000000000000000000000000000000007bffffffffffffffffffffffffffffffffffffffffffffffffffffffff1916827bffffffffffffffffffffffffffffffffffffffffffffffffffffffff1916145b806104da57506104d982610ff6565b5b9050919050565b6060600080546104f090612523565b80601f016020809104026020016040519081016040528092919081815260200182805461051c90612523565b80156105695780601f1061053e57610100808354040283529160200191610569565b820191906000526020600020905b81548152906001019060200180831161054c57829003601f168201915b5050505050905090565b600061057e82611060565b50610588826110e8565b9050919050565b6105a1828261059c611125565b61112d565b5050565b7f000000000000000000000000000000000000000000000000000000000000000060075410610609576040517f08c379a0000000000000000000000000000000000000000000000000000000008152600401610600906125a0565b60405180910390fd5b7f00000000000000000000000000000000000000000000000000000000000000007f000000000000000000000000000000000000000000000000000000000000000073ffffffffffffffffffffffffffffffffffffffff166370a08231336040518263ffffffff1660e01b815260040161068391906120e5565b602060405180830381865afa1580156106a0573d6000803e3d6000fd5b505050506040513d601f19601f820116820180604052508101906106c491906125d5565b1015610705576040517f08c379a00000000000000000000000000000000000000000000000000000000081526004016106fc9061264e565b60405180910390fd5b7f00000000000000000000000000000000000000000000000000000000000000007f000000000000000000000000000000000000000000000000000000000000000073ffffffffffffffffffffffffffffffffffffffff1663dd62ed3e33306040518363ffffffff1660e01b815260040161078192919061266e565b602060405180830381865afa15801561079e573d6000803e3d6000fd5b505050506040513d601f19601f820116820180604052508101906107c291906125d5565b1015610803576040517f08c379a00000000000000000000000000000000000000000000000000000000081526004016107fa90612709565b60405180910390fd5b60007f000000000000000000000000000000000000000000000000000000000000000073ffffffffffffffffffffffffffffffffffffffff166323b872dd33307f00000000000000000000000000000000000000000000000000000000000000006040518463ffffffff1660e01b815260040161088293929190612729565b6020604051808303816000875af11580156108a1573d6000803e3d6000fd5b505050506040513d601f19601f820116820180604052508101906108c59190612775565b905080610907576040517f08c379a00000000000000000000000000000000000000000000000000000000081526004016108fe906127ee565b60405180910390fd5b6007600081548092919061091a9061283d565b919050555061092b3360075461113f565b50565b600073ffffffffffffffffffffffffffffffffffffffff168273ffffffffffffffffffffffffffffffffffffffff16036109a05760006040517f64a0ae9200000000000000000000000000000000000000000000000000000000815260040161099791906120e5565b60405180910390fd5b60006109b483836109af611125565b61115d565b90508373ffffffffffffffffffffffffffffffffffffffff168173ffffffffffffffffffffffffffffffffffffffff1614610a2a578382826040517f64283d7b000000000000000000000000000000000000000000000000000000008152600401610a2193929190612885565b60405180910390fd5b50505050565b7f000000000000000000000000000000000000000000000000000000000000000081565b610a5c611377565b60007f000000000000000000000000000000000000000000000000000000000000000073ffffffffffffffffffffffffffffffffffffffff166370a08231306040518263ffffffff1660e01b8152600401610ab791906120e5565b602060405180830381865afa158015610ad4573d6000803e3d6000fd5b505050506040513d601f19601f82011682018060405250810190610af891906125d5565b905060008111610b3d576040517f08c379a0000000000000000000000000000000000000000000000000000000008152600401610b3490612908565b60405180910390fd5b60007f000000000000000000000000000000000000000000000000000000000000000073ffffffffffffffffffffffffffffffffffffffff1663a9059cbb610b83610d58565b846040518363ffffffff1660e01b8152600401610ba1929190612928565b6020604051808303816000875af1158015610bc0573d6000803e3d6000fd5b505050506040513d601f19601f82011682018060405250810190610be49190612775565b905080610c26576040517f08c379a0000000000000000000000000000000000000000000000000000000008152600401610c1d9061299d565b60405180910390fd5b5050565b610c4583838360405180602001604052806000815250610e2a565b505050565b6000600754905090565b6000610c5f82611060565b9050919050565b7f000000000000000000000000000000000000000000000000000000000000000081565b60008073ffffffffffffffffffffffffffffffffffffffff168273ffffffffffffffffffffffffffffffffffffffff1603610cfd5760006040517f89c62b64000000000000000000000000000000000000000000000000000000008152600401610cf491906120e5565b60405180910390fd5b600360008373ffffffffffffffffffffffffffffffffffffffff1673ffffffffffffffffffffffffffffffffffffffff168152602001908152602001600020549050919050565b610d4c611377565b610d5660006113fe565b565b6000600660009054906101000a900473ffffffffffffffffffffffffffffffffffffffff16905090565b606060018054610d9190612523565b80601f0160208091040260200160405190810160405280929190818152602001828054610dbd90612523565b8015610e0a5780601f10610ddf57610100808354040283529160200191610e0a565b820191906000526020600020905b815481529060010190602001808311610ded57829003601f168201915b5050505050905090565b610e26610e1f611125565b83836114c4565b5050565b610e3584848461092e565b610e49610e40611125565b85858585611633565b50505050565b6060610e5a82611060565b506000610e656117e4565b90506000815111610e855760405180602001604052806000815250610eb0565b80610e8f846117fb565b604051602001610ea09291906129f9565b6040516020818303038152906040525b915050919050565b7f000000000000000000000000000000000000000000000000000000000000000081565b6000600560008473ffffffffffffffffffffffffffffffffffffffff1673ffffffffffffffffffffffffffffffffffffffff16815260200190815260200160002060008373ffffffffffffffffffffffffffffffffffffffff1673ffffffffffffffffffffffffffffffffffffffff16815260200190815260200160002060009054906101000a900460ff16905092915050565b610f78611377565b600073ffffffffffffffffffffffffffffffffffffffff168173ffffffffffffffffffffffffffffffffffffffff1603610fea5760006040517f1e4fbdf7000000000000000000000000000000000000000000000000000000008152600401610fe191906120e5565b60405180910390fd5b610ff3816113fe565b50565b60007f01ffc9a7000000000000000000000000000000000000000000000000000000007bffffffffffffffffffffffffffffffffffffffffffffffffffffffff1916827bffffffffffffffffffffffffffffffffffffffffffffffffffffffff1916149050919050565b60008061106c836118c9565b9050600073ffffffffffffffffffffffffffffffffffffffff168173ffffffffffffffffffffffffffffffffffffffff16036110df57826040517f7e2732890000000000000000000000000000000000000000000000000000000081526004016110d69190612248565b60405180910390fd5b80915050919050565b60006004600083815260200190815260200160002060009054906101000a900473ffffffffffffffffffffffffffffffffffffffff169050919050565b600033905090565b61113a8383836001611906565b505050565b611159828260405180602001604052806000815250611acb565b5050565b600080611169846118c9565b9050600073ffffffffffffffffffffffffffffffffffffffff168373ffffffffffffffffffffffffffffffffffffffff16146111ab576111aa818486611aef565b5b600073ffffffffffffffffffffffffffffffffffffffff168173ffffffffffffffffffffffffffffffffffffffff161461123c576111ed600085600080611906565b6001600360008373ffffffffffffffffffffffffffffffffffffffff1673ffffffffffffffffffffffffffffffffffffffff168152602001908152602001600020600082825403925050819055505b600073ffffffffffffffffffffffffffffffffffffffff168573ffffffffffffffffffffffffffffffffffffffff16146112bf576001600360008773ffffffffffffffffffffffffffffffffffffffff1673ffffffffffffffffffffffffffffffffffffffff168152602001908152602001600020600082825401925050819055505b846002600086815260200190815260200160002060006101000a81548173ffffffffffffffffffffffffffffffffffffffff021916908373ffffffffffffffffffffffffffffffffffffffff160217905550838573ffffffffffffffffffffffffffffffffffffffff168273ffffffffffffffffffffffffffffffffffffffff167fddf252ad1be2c89b69c2b068fc378daa952ba7f163c4a11628f55a4df523b3ef60405160405180910390a4809150509392505050565b61137f611125565b73ffffffffffffffffffffffffffffffffffffffff1661139d610d58565b73ffffffffffffffffffffffffffffffffffffffff16146113fc576113c0611125565b6040517f118cdaa70000000000000000000000000000000000000000000000000000000081526004016113f391906120e5565b60405180910390fd5b565b6000600660009054906101000a900473ffffffffffffffffffffffffffffffffffffffff16905081600660006101000a81548173ffffffffffffffffffffffffffffffffffffffff021916908373ffffffffffffffffffffffffffffffffffffffff1602179055508173ffffffffffffffffffffffffffffffffffffffff168173ffffffffffffffffffffffffffffffffffffffff167f8be0079c531659141344cd1fd0a4f28419497f9722a3daafe3b4186f6b6457e060405160405180910390a35050565b600073ffffffffffffffffffffffffffffffffffffffff168273ffffffffffffffffffffffffffffffffffffffff160361153557816040517f5b08ba1800000000000000000000000000000000000000000000000000000000815260040161152c91906120e5565b60405180910390fd5b80600560008573ffffffffffffffffffffffffffffffffffffffff1673ffffffffffffffffffffffffffffffffffffffff16815260200190815260200160002060008473ffffffffffffffffffffffffffffffffffffffff1673ffffffffffffffffffffffffffffffffffffffff16815260200190815260200160002060006101000a81548160ff0219169083151502179055508173ffffffffffffffffffffffffffffffffffffffff168373ffffffffffffffffffffffffffffffffffffffff167f17307eab39ab6107e8899845ad3d59bd9653f200f220920489ca2b5937696c31836040516116269190611f74565b60405180910390a3505050565b60008373ffffffffffffffffffffffffffffffffffffffff163b11156117dd578273ffffffffffffffffffffffffffffffffffffffff1663150b7a02868685856040518563ffffffff1660e01b81526004016116929493929190612a72565b6020604051808303816000875af19250505080156116ce57506040513d601f19601f820116820180604052508101906116cb9190612ad3565b60015b611752573d80600081146116fe576040519150601f19603f3d011682016040523d82523d6000602084013e611703565b606091505b50600081510361174a57836040517f64a0ae9200000000000000000000000000000000000000000000000000000000815260040161174191906120e5565b60405180910390fd5b805181602001fd5b63150b7a0260e01b7bffffffffffffffffffffffffffffffffffffffffffffffffffffffff1916817bffffffffffffffffffffffffffffffffffffffffffffffffffffffff1916146117db57836040517f64a0ae920000000000000000000000000000000000000000000000000000000081526004016117d291906120e5565b60405180910390fd5b505b5050505050565b606060405180602001604052806000815250905090565b60606000600161180a84611bb3565b01905060008167ffffffffffffffff81111561182957611828612306565b5b6040519080825280601f01601f19166020018201604052801561185b5781602001600182028036833780820191505090505b509050600082602001820190505b6001156118be578080600190039150507f3031323334353637383961626364656600000000000000000000000000000000600a86061a8153600a85816118b2576118b1612b00565b5b04945060008503611869575b819350505050919050565b60006002600083815260200190815260200160002060009054906101000a900473ffffffffffffffffffffffffffffffffffffffff169050919050565b808061193f5750600073ffffffffffffffffffffffffffffffffffffffff168273ffffffffffffffffffffffffffffffffffffffff1614155b15611a7357600061194f84611060565b9050600073ffffffffffffffffffffffffffffffffffffffff168373ffffffffffffffffffffffffffffffffffffffff16141580156119ba57508273ffffffffffffffffffffffffffffffffffffffff168173ffffffffffffffffffffffffffffffffffffffff1614155b80156119cd57506119cb8184610edc565b155b15611a0f57826040517fa9fbf51f000000000000000000000000000000000000000000000000000000008152600401611a0691906120e5565b60405180910390fd5b8115611a7157838573ffffffffffffffffffffffffffffffffffffffff168273ffffffffffffffffffffffffffffffffffffffff167f8c5be1e5ebec7d5bd14f71427d1e84f3dd0314c0f7b2291e5b200ac8c7c3b92560405160405180910390a45b505b836004600085815260200190815260200160002060006101000a81548173ffffffffffffffffffffffffffffffffffffffff021916908373ffffffffffffffffffffffffffffffffffffffff16021790555050505050565b611ad58383611d06565b611aea611ae0611125565b6000858585611633565b505050565b611afa838383611dff565b611bae57600073ffffffffffffffffffffffffffffffffffffffff168373ffffffffffffffffffffffffffffffffffffffff1603611b6f57806040517f7e273289000000000000000000000000000000000000000000000000000000008152600401611b669190612248565b60405180910390fd5b81816040517f177e802f000000000000000000000000000000000000000000000000000000008152600401611ba5929190612928565b60405180910390fd5b505050565b600080600090507a184f03e93ff9f4daa797ed6e38ed64bf6a1f0100000000000000008310611c11577a184f03e93ff9f4daa797ed6e38ed64bf6a1f0100000000000000008381611c0757611c06612b00565b5b0492506040810190505b6d04ee2d6d415b85acef81000000008310611c4e576d04ee2d6d415b85acef81000000008381611c4457611c43612b00565b5b0492506020810190505b662386f26fc100008310611c7d57662386f26fc100008381611c7357611c72612b00565b5b0492506010810190505b6305f5e1008310611ca6576305f5e1008381611c9c57611c9b612b00565b5b0492506008810190505b6127108310611ccb576127108381611cc157611cc0612b00565b5b0492506004810190505b60648310611cee5760648381611ce457611ce3612b00565b5b0492506002810190505b600a8310611cfd576001810190505b80915050919050565b600073ffffffffffffffffffffffffffffffffffffffff168273ffffffffffffffffffffffffffffffffffffffff1603611d785760006040517f64a0ae92000000000000000000000000000000000000000000000000000000008152600401611d6f91906120e5565b60405180910390fd5b6000611d868383600061115d565b9050600073ffffffffffffffffffffffffffffffffffffffff168173ffffffffffffffffffffffffffffffffffffffff1614611dfa5760006040517f73c6ac6e000000000000000000000000000000000000000000000000000000008152600401611df191906120e5565b60405180910390fd5b505050565b60008073ffffffffffffffffffffffffffffffffffffffff168373ffffffffffffffffffffffffffffffffffffffff1614158015611eb757508273ffffffffffffffffffffffffffffffffffffffff168473ffffffffffffffffffffffffffffffffffffffff161480611e785750611e778484610edc565b5b80611eb657508273ffffffffffffffffffffffffffffffffffffffff16611e9e836110e8565b73ffffffffffffffffffffffffffffffffffffffff16145b5b90509392505050565b6000604051905090565b600080fd5b600080fd5b60007fffffffff0000000000000000000000000000000000000000000000000000000082169050919050565b611f0981611ed4565b8114611f1457600080fd5b50565b600081359050611f2681611f00565b92915050565b600060208284031215611f4257611f41611eca565b5b6000611f5084828501611f17565b91505092915050565b60008115159050919050565b611f6e81611f59565b82525050565b6000602082019050611f896000830184611f65565b92915050565b600081519050919050565b600082825260208201905092915050565b60005b83811015611fc9578082015181840152602081019050611fae565b60008484015250505050565b6000601f19601f8301169050919050565b6000611ff182611f8f565b611ffb8185611f9a565b935061200b818560208601611fab565b61201481611fd5565b840191505092915050565b600060208201905081810360008301526120398184611fe6565b905092915050565b6000819050919050565b61205481612041565b811461205f57600080fd5b50565b6000813590506120718161204b565b92915050565b60006020828403121561208d5761208c611eca565b5b600061209b84828501612062565b91505092915050565b600073ffffffffffffffffffffffffffffffffffffffff82169050919050565b60006120cf826120a4565b9050919050565b6120df816120c4565b82525050565b60006020820190506120fa60008301846120d6565b92915050565b612109816120c4565b811461211457600080fd5b50565b60008135905061212681612100565b92915050565b6000806040838503121561214357612142611eca565b5b600061215185828601612117565b925050602061216285828601612062565b9150509250929050565b60008060006060848603121561218557612184611eca565b5b600061219386828701612117565b93505060206121a486828701612117565b92505060406121b586828701612062565b9150509250925092565b6000819050919050565b60006121e46121df6121da846120a4565b6121bf565b6120a4565b9050919050565b60006121f6826121c9565b9050919050565b6000612208826121eb565b9050919050565b612218816121fd565b82525050565b6000602082019050612233600083018461220f565b92915050565b61224281612041565b82525050565b600060208201905061225d6000830184612239565b92915050565b60006020828403121561227957612278611eca565b5b600061228784828501612117565b91505092915050565b61229981611f59565b81146122a457600080fd5b50565b6000813590506122b681612290565b92915050565b600080604083850312156122d3576122d2611eca565b5b60006122e185828601612117565b92505060206122f2858286016122a7565b9150509250929050565b600080fd5b600080fd5b7f4e487b7100000000000000000000000000000000000000000000000000000000600052604160045260246000fd5b61233e82611fd5565b810181811067ffffffffffffffff8211171561235d5761235c612306565b5b80604052505050565b6000612370611ec0565b905061237c8282612335565b919050565b600067ffffffffffffffff82111561239c5761239b612306565b5b6123a582611fd5565b9050602081019050919050565b82818337600083830152505050565b60006123d46123cf84612381565b612366565b9050828152602081018484840111156123f0576123ef612301565b5b6123fb8482856123b2565b509392505050565b600082601f830112612418576124176122fc565b5b81356124288482602086016123c1565b91505092915050565b6000806000806080858703121561244b5761244a611eca565b5b600061245987828801612117565b945050602061246a87828801612117565b935050604061247b87828801612062565b925050606085013567ffffffffffffffff81111561249c5761249b611ecf565b5b6124a887828801612403565b91505092959194509250565b600080604083850312156124cb576124ca611eca565b5b60006124d985828601612117565b92505060206124ea85828601612117565b9150509250929050565b7f4e487b7100000000000000000000000000000000000000000000000000000000600052602260045260246000fd5b6000600282049050600182168061253b57607f821691505b60208210810361254e5761254d6124f4565b5b50919050565b7f537570706c79204d61786564204f757400000000000000000000000000000000600082015250565b600061258a601083611f9a565b915061259582612554565b602082019050919050565b600060208201905081810360008301526125b98161257d565b9050919050565b6000815190506125cf8161204b565b92915050565b6000602082840312156125eb576125ea611eca565b5b60006125f9848285016125c0565b91505092915050565b7f496e73756666696369656e7420746f6b656e2062616c616e6365000000000000600082015250565b6000612638601a83611f9a565b915061264382612602565b602082019050919050565b600060208201905081810360008301526126678161262b565b9050919050565b600060408201905061268360008301856120d6565b61269060208301846120d6565b9392505050565b7f416c6c6f77616e6365206e6f7420736574206f7220696e73756666696369656e60008201527f7400000000000000000000000000000000000000000000000000000000000000602082015250565b60006126f3602183611f9a565b91506126fe82612697565b604082019050919050565b60006020820190508181036000830152612722816126e6565b9050919050565b600060608201905061273e60008301866120d6565b61274b60208301856120d6565b6127586040830184612239565b949350505050565b60008151905061276f81612290565b92915050565b60006020828403121561278b5761278a611eca565b5b600061279984828501612760565b91505092915050565b7f546f6b656e207472616e73666572206661696c65640000000000000000000000600082015250565b60006127d8601583611f9a565b91506127e3826127a2565b602082019050919050565b60006020820190508181036000830152612807816127cb565b9050919050565b7f4e487b7100000000000000000000000000000000000000000000000000000000600052601160045260246000fd5b600061284882612041565b91507fffffffffffffffffffffffffffffffffffffffffffffffffffffffffffffffff820361287a5761287961280e565b5b600182019050919050565b600060608201905061289a60008301866120d6565b6128a76020830185612239565b6128b460408301846120d6565b949350505050565b7f4e6f2062616c616e636520746f20776974686472617700000000000000000000600082015250565b60006128f2601683611f9a565b91506128fd826128bc565b602082019050919050565b60006020820190508181036000830152612921816128e5565b9050919050565b600060408201905061293d60008301856120d6565b61294a6020830184612239565b9392505050565b7f5769746864726177616c206661696c6564000000000000000000000000000000600082015250565b6000612987601183611f9a565b915061299282612951565b602082019050919050565b600060208201905081810360008301526129b68161297a565b9050919050565b600081905092915050565b60006129d382611f8f565b6129dd81856129bd565b93506129ed818560208601611fab565b80840191505092915050565b6000612a0582856129c8565b9150612a1182846129c8565b91508190509392505050565b600081519050919050565b600082825260208201905092915050565b6000612a4482612a1d565b612a4e8185612a28565b9350612a5e818560208601611fab565b612a6781611fd5565b840191505092915050565b6000608082019050612a8760008301876120d6565b612a9460208301866120d6565b612aa16040830185612239565b8181036060830152612ab38184612a39565b905095945050505050565b600081519050612acd81611f00565b92915050565b600060208284031215612ae957612ae8611eca565b5b6000612af784828501612abe565b91505092915050565b7f4e487b7100000000000000000000000000000000000000000000000000000000600052601260045260246000fdfea2646970667358221220c59727dd0ae332e0ed81e9485fb388361479e2765c1ba338d651763b76224de764736f6c634300081c0033",
  "linkReferences": {},
  "deployedLinkReferences": {}
}